:020000040800F2
:100000001804002045010008F50A0008D106000880
:10001000510A00088D010008FD0E000800000000D4
:10002000000000000000000000000000E10B0008DC
:10003000A9030008000000009D0B0008CD0C00087B
:100040005F0100085F0100085F0100085F01000810
:100050005F0100085F0100085F0100085F01000800
:100060005F0100085F0100085F0100085F010008F0
:100070005F0100085F0100085F0100085F010008E0
:100080005F0100085F0100085F0100085F010008D0
:100090005F0100085F0100085F0100085F010008C0
:1000A0005F0100085F0100085F0100085F010008B0
:1000B000250D00085F0100085F0100085F010008CE
:1000C0005F0100085F0100085F0100085F01000890
:1000D0005F0100085F0100085F0100085F01000880
:1000E000410400085F0100085F0100085F0100088B
:1000F0005F0100085F0100085F0100085F01000860
:100100005F0100085F0100085F0100085F0100084F
:100110005F0100085F0100085F0100085F0100083F
:100120005F0100085F0100085F0100085F0100082F
:10013000DFF80CD000F018F8004800475D0F000809
:10014000180400200648804706480047FEE7FEE7FF
:10015000FEE7FEE7FEE7FEE7FEE7FEE7FEE7FEE777
:10016000D10C000831010008064C074D06E0E0689C
:1001700040F0010394E8070098471034AC42F6D3EE
:10018000FFF7DAFF3C1000085C10000800BFFEE734
:10019000D8200449087004490870044908700449CB
:1001A00008707047040000200500002006000020B1
:1001B00007000020282004490870044908700449F9
:1001C00008700449087070470400002005000020F2
:1001D0000600002007000020EC20064908702820B7
:1001E00005490870EC200549087032200449087060
:1001F00070470000040000200500002006000020D9
:100200000700002010B510214D4800F05FFA0421CE
:100210004B4800F05BFA4B4890F9000000281ADDCB
:1002200049480068474991F90010884209D24FF4C3
:100230000061464800F04AFA0121414800F044FAC2
:1002400033E04FF40061414800F03EFA01213C48A0
:1002500000F03AFA29E03B4890F9000000281BDA48
:10026000384890F90000404237490968884209D966
:100270004FF40061354800F027FA0121304800F0C2
:1002800025FA12E04FF40061304800F01DFA012118
:100290002B4800F019FA08E04FF400612B4800F0F9
:1002A00013FA0121264800F00FFA294890F90000BE
:1002B00000281ADD24480068254991F90010884279
:1002C00009D240211E4800F001FA4FF40071214884
:1002D00000F0FAF933E04021194800F0F5F94FF445
:1002E00000711C4800F0F0F929E0194890F900006D
:1002F00000281BDA164890F90000404212490968AC
:10030000884209D940210E4800F0DEF94FF400710F
:10031000104800F0DBF912E04021094800F0D4F960
:100320004FF400710B4800F0CFF908E04021044879
:1003300000F0CAF94FF40071064800F0C5F910BD8D
:1003400000140140050000200000002000100140C2
:100350000600002000200140282006490870EC20FB
:1003600005490870322005490870EC2004490870DE
:100370007047000004000020050000200600002057
:10038000070000200020044908700449087004494F
:100390000870044908707047040000200500002020
:1003A0000600002007000020704710B5044602E058
:1003B0008C2000F007F8201EA4F10101CCB2F7D187
:1003C00010BD000031B5009884B20121094800F049
:1003D00001FD2146074800F026FD03E0054800F036
:1003E00005FD0446012CF9DC0021024800F0F2FC76
:1003F00038BD00000004004000EBC0014FF0E022D7
:1004000051611146096941F00101116100BF4FF0CE
:10041000E021096901F480310029F8D000214FF072
:10042000E02211619161704700B5034603E04FF48B
:100430007A70FFF7E1FF181EA3F10103F7D100BDA9
:1004400010B54FF4806000F00FF828B14FF48060D1
:1004500000F004F800F07CF910BD000001490860CC
:100460007047000014040140014600200022074BA1
:100470001B6803EA0102054B14331B680B4013B1E0
:100480000AB1012000E00020704700000004014094
:10049000002123498279002A3AD00A46126803686B
:1004A0009A430B461A600A1D126803689A430B1D93
:1004B0001A60027911440A6803681A430A60184AEC
:1004C0000832126803689A43154B08331A601A1DE4
:1004D000126803689A43124B0C331A604279102A4F
:1004E0000ED11A1F126803681A430D4B08331A60A5
:1004F0001A1D126803681A43094B0C331A600DE089
:100500000749427911440A6803681A430A6005E002
:10051000027911440A6803689A430A607047000030
:100520000004014010B50121042000F049FB012125
:10053000082000F045FB0121102000F041FB0121C3
:10054000202000F03DFB0121402000F039FB01217B
:10055000802000F035FB0121080200F031FB10BDC6
:1005600030B500228B071C0F0F2303FA04F20B4B4C
:100570008C1053F824309343084C8D1044F82530E8
:1005800023468C1053F824308C07240F00FA04F40F
:100590002343024C8D1044F8253030BD0800014043
:1005A0002DE9F0410246002500260020002300240A
:1005B000002791F803C00CF00F0591F803C00CF070
:1005C000100CBCF1000F03D091F802C04CEA0505F5
:1005D00091F800C0BCF1000F31D0146800202BE06E
:1005E0004FF0010C0CFA00F3B1F800C00CEA03065E
:1005F0009E4220D183004FF00F0C0CFA03F7BC434E
:1006000005FA03FC4CEA040491F803C0BCF1280F7E
:1006100006D14FF0010C0CFA00FCC2F814C00AE03D
:1006200091F803C0BCF1480F05D14FF0010C0CFA52
:1006300000FCC2F810C0401C0828D1D31460B1F8E7
:1006400000C0BCF1FF0F34DD546800202EE000F143
:10065000080C4FF0010808FA0CF3B1F800C00CEADE
:1006600003069E4221D183004FF00F0C0CFA03F7D2
:10067000BC4305FA03FC4CEA040491F803C0BCF146
:10068000280F05D100F1080C08FA0CF8C2F8148004
:1006900091F803C0BCF1480F07D100F1080C4FF0EE
:1006A000010808FA0CF8C2F81080401C0828CED3C4
:1006B0005460BDE8F0810246002093680B400BB106
:1006C000012000E0002070474161704701617047E0
:1006D00000BFFEE71FB50121084600F071FA4FF494
:1006E0008060ADF80C0048208DF80F0003208DF8D5
:1006F0000E0003A91548FFF753FF0A210320FFF757
:100700002FFF4FF4806001900C208DF8090000202D
:100710008DF8080001208DF80A0001A8FFF7B8FE47
:100720004FF4E06000F020FA28208DF8000000204F
:100730008DF801008DF8020001208DF80300684655
:1007400000F0DAF900F0C4FB1FBD00000014014006
:1007500070B500260F20FFF728FE4FF48061424855
:10076000FFF7A9FF012800D170BD28203F4908707C
:1007700002E00120FFF719FE4FF480613A48FFF7CD
:100780009AFF0028F5D000243AE0002534E002E08A
:100790000120FFF70AFE4FF480613348FFF78BFF1B
:1007A0000028F5D102E00120FFF7FFFD4FF4806142
:1007B0002D48FFF780FF0028F5D007E00120FFF764
:1007C000F4FD701CC6B21E2E00DBCDE74FF4806135
:1007D0002548FFF770FF0028F0D12548005D401044
:1007E00023490855082E04DB0846005D40F08000D0
:1007F00008550026681CC5B2082DC8DB601CC4B2B1
:10080000042CC2DB1A48C078C043C5B218488078AF
:10081000A84200D0A8E716488078432811D004DC0D
:1008200015280AD0402818D113E044280DD04628B6
:1008300013D141200F49087010E042200D49087083
:100840000CE043200B49087008E044200949087077
:1008500004E049200749087000E085E700BF012057
:100860000549087000BF7FE7001401400C0000201C
:100870000E0000200B0000200D00002010B5002409
:1008800000F032F86420FFF7CFFD382000F07CF84C
:100890000C2000F079F8062000F076F8012000F036
:1008A00073F86420FFF7C0FD802000F06DF800BFF2
:1008B00005E00B49085D00F099F8601C44B20A2C71
:1008C000F7DBC02000F060F8002405E00549085D72
:1008D00000F08CF8601C44B2082CF7DB10BD00005F
:1008E000281000083310000808B54FF40050ADF888
:1008F000000010208DF8030003208DF802006946E7
:100900001648FFF74DFE4FF48040ADF80000102070
:100910008DF8030003208DF8020069460F48FFF7A9
:100920003FFE4FF40040ADF8000010208DF80300AA
:1009300003208DF8020069460848FFF731FEFF20CA
:10094000ADF8000010208DF8030003208DF80200A0
:1009500069460348FFF724FE08BD0000001001406F
:10096000001C014010B50446C92000F00DF8E0B2AB
:1009700000F03CF810BD0000024909684140014AFE
:10098000116070470C0C014010B504461420FFF7AD
:1009900033FD4FF47F00134908600846046041149A
:1009A0001148FFF791FE4FF480410F48FFF78CFE8E
:1009B0004FF400410C48FFF787FE0A20FFF71CFDAB
:1009C0004FF400410848FFF781FE0A20FFF714FDAD
:1009D0004FF400410448FFF777FE0A20FFF70CFDB3
:1009E00010BD0000101C01400010014010B504466D
:1009F0001420FFF701FD4FF47F00134908600846FB
:100A0000046041141148FFF761FE4FF480410F4824
:100A1000FFF75AFE4FF400410C48FFF755FE0A203D
:100A2000FFF7EAFC4FF400410848FFF74FFE0A20A9
:100A3000FFF7E2FC4FF400410448FFF745FE0A20AF
:100A4000FFF7DAFC10BD0000101C0140001001404F
:100A500000BFFEE708B54FF40050ADF800000220DB
:100A60008DF8020010208DF8030069461B48FFF73F
:100A700097FD4FF40060ADF8000069461748FFF796
:100A80008FFD4FF40060ADF8000069461448FFF791
:100A900087FD0120ADF8000069461248FFF780FD90
:100AA0004020ADF8000069460E48FFF779FD4FF48D
:100AB0000070ADF8000069460848FFF771FD10208E
:100AC000ADF8000069460748FFF76AFD0420ADF85D
:100AD000000069460348FFF763FD08BD00200140A0
:100AE000001001400014014010B5FFF7B3FFFFF7FD
:100AF00049FC10BD7047000070B5002100230F2293
:100B0000C47804B3154C246804F4E064C4F5E064CC
:100B1000210AC1F10403CA40447804FA03F184783D
:100B20001440214309010E4C0678A155047804F0C5
:100B30001F050124AC4005786D11AD0005F1E025DD
:100B4000C5F8004109E0047804F01F050124AC4019
:100B5000044D0678761145F8264070BD0CED00E096
:100B600000E400E080E100E002490143024A116034
:100B7000704700000000FA050CED00E008B51C20ED
:100B80008DF8000000208DF8010001208DF8020092
:100B90008DF803006846FFF7AFFF08BD70470000FF
:100BA00029B1064AD2690243044BDA6104E0034AE0
:100BB000D2698243014BDA617047000000100240A5
:100BC00029B1064A92690243044B9A6104E0034A40
:100BD00092698243014B9A61704700000010024005
:100BE000704710B500F002F810BD00000CB50020F1
:100BF000019000903348006840F48030314908602B
:100C000000BF3048006800F4003000900198401C9C
:100C10000190009818B90198B0F5A06FF1D129485A
:100C2000006800F4003010B10120009001E00020C5
:100C300000900098012843D12348006840F010003C
:100C4000214908600846006820F003000860084653
:100C5000006840F0020008601A484068194948607E
:100C60000846406848600846406840F48060486034
:100C70000846406820F47C1048600846406840F40C
:100C8000E81048600846006840F08070086000BFC7
:100C90000C48006800F000700028F9D0094840684E
:100CA00020F00300074948600846406840F0020011
:100CB000486000BF0348406800F00C000828F9D1E4
:100CC0000CBD0000001002400020024070470000F0
:100CD00010B51148006840F001000F49086008464F
:100CE00040680E4908400C494860084600680C49B5
:100CF0000840094908600846006820F48020086020
:100D00000846406820F4FE0048604FF41F008860E9
:100D1000FFF767FF10BD0000001002400000FFF861
:100D2000FFFFF6FE10B50121880700F062F808B356
:100D30000121880700F04BF80F480078401C0E494D
:100D40000870084600780A2814DB002008700B4859
:100D50000068401C0949086009480078401C08499F
:100D6000087006480068322802D300200349086052
:100D7000FFF748FA10BD0000090000200000002025
:100D8000080000200EB501210846FFF709FF632087
:100D9000ADF804004720ADF800000020ADF80600D3
:100DA000ADF8020069464FF0804000F03FF80121A5
:100DB000880700F00CF801221146900700F02AF88D
:100DC0000121880700F006F8FFF7D8FE0EBDCA43E0
:100DD0000282704721B1028842F00102028004E0E1
:100DE00002884FF6FE731A40028070470146888CD5
:100DF000704730B50246002000230024158A05EA1A
:100E00000103958905EA010413B10CB1012000E04A
:100E1000002030BD1AB183890B43838102E08389AE
:100E20008B438381704781847047000000220288D1
:100E30001D4B98420ED01D4B98420BD0B0F1804F05
:100E400008D01B4B984205D01A4B984202D01A4B3F
:100E5000984204D14FF68F731A404B881A43174BB0
:100E6000984207D0164B984204D04FF6FF431A40E1
:100E7000CB881A4302808B8883850B8803850A4BB5
:100E800098420BD0094B984208D00E4B984205D09F
:100E90000D4B984202D00D4B984201D10B7A03863C
:100EA0000123838270470000002C01400034014080
:100EB0000004004000080040000C0040001000400A
:100EC000001400400040014000440140004801403F
:100ED0000EB501210220FFF763FE0120ADF80400EA
:100EE0004720ADF800001020ADF802006946024826
:100EF000FFF79CFF0EBD00000004004000BFFEE7AE
:100F000008B50120ADF8000010208DF80300032083
:100F10008DF8020069460448FFF742FB01210248B0
:100F2000FFF7D4FB08BD0000000C014002E008C838
:100F3000121F08C1002AFAD170477047002001E053
:100F400001C1121F002AFBD170474FF0E020006959
:100F500020F004004FF0E02108617047FFF7F5FF33
:100F6000FFF7E0FAFFF7CCFFFFF788FCFFF7B2FBD3
:100F7000FFF708FFFFF7B8FD4AE02648007805288C
:100F800046DB00202349087023480078401C224992
:100F9000087008460078282804DB0020087001202B
:100FA000FFF7EAFC1D480078401E1C4908700846FF
:100FB000007818B901200870FFF7E4F918480078A4
:100FC000012825D1002016490870164890F9000024
:100FD0004138092815D2DFE800F005080B0E14147B
:100FE00014141100FFF7E6F80CE0FFF7D1F809E060
:100FF000FFF7F2F806E0FFF7AFF903E0FFF7C2F9F9
:1010000000E000BF00BF074890F90000FFF7AAFC0E
:10101000B3E70000080000200A0000200C000020B8
:101020000D0000200B00002044697374616E63653D
:101030003A2000436F6D6D616E643A005C100008E9
:1010400000000020140000002C0F000870100008A1
:1010500014000020040400003C0F00080000000001
:101060002828282800000049000000000000000097
:0400000508000145A9
:00000001FF
