:020000040800F2
:1000000018040020490100080909000885050008B6
:1000100065080008910100088D0D0008000000002F
:10002000000000000000000000000000710A00084D
:1000300031030008000000009D090008890B00083A
:100040006301000863010008630100086301000800
:1000500063010008630100086301000863010008F0
:1000600063010008630100086301000863010008E0
:1000700063010008630100086301000863010008D0
:1000800063010008630100086301000863010008C0
:1000900063010008630100086301000863010008B0
:1000A00063010008630100086301000863010008A0
:1000B000E10B000863010008630100086301000808
:1000C0006301000863010008630100086301000880
:1000D0006301000863010008630100086301000870
:1000E000C9030008630100086301000863010008F8
:1000F0006301000863010008630100086301000850
:10010000630100086301000863010008630100083F
:10011000630100086301000863010008630100082F
:10012000630100086301000863010008630100081F
:10013000DFF810D000F01AF800480047ED0D000875
:10014000AFF30080180400200648804706480047A7
:10015000FEE7FEE7FEE7FEE7FEE7FEE7FEE7FEE777
:10016000FEE7FEE78D0B000831010008064C074D45
:1001700006E0E06840F0010394E807009847103477
:10018000AC42F6D3FFF7D8FF280E0008480E00084F
:1001900000BFFEE72820044908700449087004499C
:1001A0000870044908707047040000200500002012
:1001B000060000200700002010B510214D4800F077
:1001C000DFF904214B4800F0DBF94B4890F90000BF
:1001D00000281ADD49480068474991F90010884213
:1001E00009D24021434800F0CBF94FF40071444854
:1001F00000F0C4F933E040213E4800F0BFF94FF46D
:1002000000713F4800F0BAF929E03B4890F900003E
:1002100000281BDA384890F9000040423749096845
:10022000884209D94021334800F0A8F94FF4007101
:10023000334800F0A5F912E040212E4800F09EF965
:100240004FF400712E4800F099F908E04021294848
:1002500000F094F94FF40071294800F08FF9294813
:1002600090F9000000281ADD24480068254991F91A
:100270000010884209D24FF40061234800F080F951
:1002800001211C4800F07AF933E04FF400611E4868
:1002900000F074F90121174800F070F929E01948BD
:1002A00090F9000000281BDA164890F9000040423F
:1002B00012490968884209D94FF40061124800F0D8
:1002C0005DF901210B4800F05BF912E04FF4006189
:1002D0000D4800F053F90121064800F04FF908E0FD
:1002E0004FF40061084800F049F90121014800F08D
:1002F00045F910BD00140140050000200000002059
:1003000000200140060000200010014000200449A8
:10031000087004490870044908700449087070475F
:100320000400002005000020060000200700002037
:10033000704710B5044602E08C2000F007F8201E3C
:10034000A4F10101CCB2F7D110BD000031B5009885
:1003500084B20121094800F09BFC2146074800F0C7
:10036000C0FC03E0054800F09FFC0446012CF9DCCA
:100370000021024800F08CFC38BD00000004004061
:1003800000EBC0014FF0E02251611146096941F0D4
:100390000101116100BF4FF0E021096901F48031D2
:1003A0000029F8D000214FF0E022116191617047DF
:1003B00000B5034603E04FF47A70FFF7E1FF181E23
:1003C000A3F10103F7D100BD10B54FF4806000F038
:1003D0000FF828B14FF4806000F004F800F0D4F872
:1003E00010BD00000149086070470000140401407E
:1003F000014600200022074B1B6803EA0102054B5F
:1004000014331B680B4013B10AB1012000E0002037
:10041000704700000004014010B50121042000F0E5
:10042000CFFA0121082000F0CBFA0121102000F0C2
:10043000C7FA0121202000F0C3FA0121402000F07A
:10044000BFFA0121802000F0BBFA0121080200F070
:10045000B7FA10BD2DE9F041024600250026002024
:1004600000230024002791F803C00CF00F0591F839
:1004700003C00CF0100CBCF1000F03D091F802C0C7
:100480004CEA050591F800C0BCF1000F31D01468AA
:1004900000202BE04FF0010C0CFA00F3B1F800C083
:1004A0000CEA03069E4220D183004FF00F0C0CFA99
:1004B00003F7BC4305FA03FC4CEA040491F803C0BB
:1004C000BCF1280F06D14FF0010C0CFA00FCC2F869
:1004D00014C00AE091F803C0BCF1480F05D14FF0F9
:1004E000010C0CFA00FCC2F810C0401C0828D1D343
:1004F0001460B1F800C0BCF1FF0F34DD5468002077
:100500002EE000F1080C4FF0010808FA0CF3B1F8E6
:1005100000C00CEA03069E4221D183004FF00F0C6D
:100520000CFA03F7BC4305FA03FC4CEA040491F807
:1005300003C0BCF1280F05D100F1080C08FA0CF833
:10054000C2F8148091F803C0BCF1480F07D100F144
:10055000080C4FF0010808FA0CF8C2F81080401C93
:100560000828CED35460BDE8F0810246002093688D
:100570000B400BB1012000E0002070474161704743
:100580000161704700BFFEE770B500260F20FFF73E
:10059000D0FE4FF480614248FFF7E7FF012800D109
:1005A00070BD28203F49087002E00120FFF7C1FE1E
:1005B0004FF480613A48FFF7D8FF0028F5D00024B7
:1005C0003AE0002534E002E00120FFF7B2FE4FF4EC
:1005D00080613348FFF7C9FF0028F5D102E0012010
:1005E000FFF7A7FE4FF480612D48FFF7BEFF0028FC
:1005F000F5D007E00120FFF79CFE701CC6B21E2E4E
:1006000000DBCDE74FF480612548FFF7AEFF0028FF
:10061000F0D12548005D401023490855082E04DB21
:100620000846005D40F0800008550026681CC5B2F1
:10063000082DC8DB601CC4B2042CC2DB1A48C07889
:10064000C043C5B218488078A84200D0A8E7164831
:100650008078432815D004DC15280AD0402818D10A
:1006600013E0442809D0462813D141200F490870CF
:1006700010E042200D4908700CE043200B4908703F
:1006800008E044200949087004E04920074908703F
:1006900000E085E700BF01200549087000BF7FE743
:1006A000001401400D000020100000200B0000206D
:1006B0000F00002010B5002400F032F86420FFF78E
:1006C00077FE382000F06AF80C2000F067F806206A
:1006D00000F064F8012000F061F86420FFF768FE84
:1006E000802000F05BF800BF05E00B49085D00F0DA
:1006F00087F8601C44B20A2CF7DBC02000F04EF8EB
:10070000002405E00549085D00F07AF8601C44B259
:10071000082CF7DB10BD0000140E00081F0E0008A7
:1007200008B54FF40050ADF8000010208DF803001C
:1007300003208DF8020069461648FFF78BFE4FF440
:100740008040ADF8000010208DF8030003208DF8E4
:10075000020069460F48FFF77DFE4FF40040ADF8F8
:10076000000010208DF8030003208DF80200694678
:100770000848FFF76FFEFF20ADF8000010208DF84D
:10078000030003208DF8020069460348FFF762FE6C
:1007900008BD000000100140001C014010B50446D7
:1007A0001420FFF7EDFD4FF47F0013490860084661
:1007B000046041141148FFF7E1FE4FF480410F48F7
:1007C000FFF7DCFE4FF400410C48FFF7D7FE0A208C
:1007D000FFF7D6FD4FF400410848FFF7D1FE0A208D
:1007E000FFF7CEFD4FF400410448FFF7C7FE0A2093
:1007F000FFF7C6FD10BD0000101C014000100140B5
:1008000010B504461420FFF7BBFD4FF47F001349D9
:1008100008600846046041141148FFF7B1FE4FF428
:1008200080410F48FFF7AAFE4FF400410C48FFF744
:10083000A5FE0A20FFF7A4FD4FF400410848FFF78A
:100840009FFE0A20FFF79CFD4FF400410448FFF78C
:1008500095FE0A20FFF794FD10BD0000101C01401A
:100860000010014000BFFEE708B54FF40050ADF89E
:10087000000002208DF8020010208DF80300694668
:100880001B48FFF7E7FD4FF40060ADF80000694634
:100890001748FFF7DFFD4FF40060ADF80000694630
:1008A0001448FFF7D7FD0120ADF800006946124853
:1008B000FFF7D0FD4020ADF8000069460E48FFF775
:1008C000C9FD4FF40070ADF8000069460848FFF715
:1008D000C1FD1020ADF8000069460748FFF7BAFDDA
:1008E0000420ADF8000069460348FFF7B3FD08BDDA
:1008F00000200140001001400014014010B5FFF736
:10090000B3FFFFF703FD10BD7047000070B5002175
:1009100000230F22C47804B3154C246804F4E06467
:10092000C4F5E064210AC1F10403CA40447804FA22
:1009300003F184781440214309010E4C0678A15537
:10094000047804F01F050124AC4005786D11AD005A
:1009500005F1E025C5F8004109E0047804F01F0521
:100960000124AC40044D0678761145F8264070BD50
:100970000CED00E000E400E080E100E008B51C20A0
:100980008DF8000000208DF8010001208DF8020094
:100990008DF803006846FFF7B9FF08BD70470000F7
:1009A00029B1064AD2690243044BDA6104E0034AE2
:1009B000D2698243014BDA617047000000100240A7
:1009C00029B1064A92690243044B9A6104E0034A42
:1009D00092698243014B9A61704700000010024007
:1009E00008B54FF48070ADF8000048208DF8030082
:1009F00003208DF8020069461B48FFF72BFD4020BD
:100A0000ADF8000048208DF8030003208DF80200A7
:100A100069461548FFF71EFD1020ADF8000048207C
:100A20008DF8030003208DF8020069460E48FFF799
:100A300011FD8020ADF8000048208DF80300032050
:100A40008DF8020069460948FFF704FD0420ADF85F
:100A5000000048208DF8030003208DF8020069464D
:100A60000148FFF7F7FC08BD0020014000100140DD
:100A70007047000008B50120ADF8000010208DF887
:100A8000030003208DF8020069460448FFF7E2FCEA
:100A900001210248FFF774FD08BD00000008014075
:100AA00010B500F001F810BD0CB5002001900090C9
:100AB0003348006840F480303149086000BF304856
:100AC000006800F4003000900198401C01900098EC
:100AD00018B90198B0F5A06FF1D12948006800F469
:100AE000003010B10120009001E00020009000983B
:100AF000012843D12348006840F0100021490860D4
:100B00000846006820F0030008600846006840F0CE
:100B1000020008601A484068194948600846406861
:100B200048600846406840F4806048600846406875
:100B300020F47C1048600846406840F4E8104860A3
:100B40000846006840F08070086000BF0C480068EC
:100B500000F000700028F9D00948406820F0030038
:100B6000074948600846406840F00200486000BFFE
:100B70000348406800F00C000828F9D10CBD0000C3
:100B800000100240002002407047000010B51148DC
:100B9000006840F001000F490860084640680E49AF
:100BA00008400C494860084600680C49084009495B
:100BB00008600846006820F4802008600846406805
:100BC00020F4FE0048604FF41F008860FFF768FFC4
:100BD00010BD0000001002400000FFF8FFFFF6FE0D
:100BE00010B50121880700F062F808B301218807D9
:100BF00000F04BF80F480078401C0E49087008467A
:100C000000780A2814DB002008700B480068401C9C
:100C10000949086009480078401C084908700648DE
:100C20000068322802D3002003490860FFF7C4FAA5
:100C300010BD000009000020000000200800002076
:100C40000EB501210846FFF7ABFE6320ADF80400A6
:100C50004720ADF800000020ADF80600ADF8020016
:100C600069464FF0804000F03FF80121880700F00E
:100C70000CF801221146900700F02AF8012188079C
:100C800000F006F8FFF77AFE0EBDCA4302827047F5
:100C900021B1028842F00102028004E002884FF68E
:100CA000FE731A40028070470146888C704730B549
:100CB0000246002000230024158A05EA01039589D5
:100CC00005EA010413B10CB1012000E0002030BDA1
:100CD0001AB183890B43838102E083898B4383812B
:100CE0007047818470470000002202881D4B9842A3
:100CF0000ED01D4B98420BD0B0F1804F08D01B4B4B
:100D0000984205D01A4B984202D01A4B984204D10F
:100D10004FF68F731A404B881A43174B984207D0EF
:100D2000164B984204D04FF6FF431A40CB881A4323
:100D300002808B8883850B8803850A4B98420BD0F1
:100D4000094B984208D00E4B984205D00D4B984263
:100D500002D00D4B984201D10B7A03860123838286
:100D600070470000002C01400034014000040040A6
:100D700000080040000C004000100040001400403B
:100D800000400140004401400048014000BFFEE730
:100D900008B50120ADF8000010208DF803000320F5
:100DA0008DF8020069460448FFF754FB0121024810
:100DB000FFF7E6FB08BD0000000C014002E008C898
:100DC000121F08C1002AFAD170477047002001E0C5
:100DD00001C1121F002AFBD170474FF0E0200069CB
:100DE00020F004004FF0E02108617047FFF7F5FFA5
:100DF000FFF712FBFFF7CCFFFFF75CFCFFF720FFCC
:100E0000FFF77CFDFFF736FEFFF7EAFD01E0FFF795
:100E1000C1F9FCE744697374616E63653A2000436D
:100E20006F6D6D616E643A00480E0008000000208E
:100E300014000000BC0D00085C0E00081400002027
:100E400004040000CC0D0008000000002828282819
:0C0E500000000049490000000000000004
:0400000508000149A5
:00000001FF
