:020000040800F2
:1000000088060020CD010008330A000875080008A2
:10001000910900080D0300082D0F000800000000E2
:10002000000000000000000000000000650B000858
:100030009504000800000000AD0A00083D0C00080F
:10004000E7010008E7010008E7010008E7010008F0
:10005000E7010008E7010008E7010008E7010008E0
:10006000E7010008E7010008E7010008E7010008D0
:10007000E7010008E7010008E7010008E7010008C0
:10008000E7010008E7010008E7010008E7010008B0
:10009000E7010008E7010008E7010008E7010008A0
:1000A000E7010008E7010008E7010008E701000890
:1000B000810C0008E7010008E7010008E7010008DB
:1000C000E7010008E7010008E7010008E701000870
:1000D000E7010008E7010008E7010008E701000860
:1000E00039050008E7010008E7010008E7010008FA
:1000F000E7010008E7010008E7010008E701000840
:10010000E7010008E7010008E7010008E70100082F
:10011000E7010008E7010008E7010008E70100081F
:10012000E7010008E7010008E7010008E70100080F
:1001300000F002F800F03AF80AA090E8000C8244BF
:100140008344AAF10107DA4501D100F02FF8AFF29C
:10015000090EBAE80F0013F0010F18BFFB1A43F0A5
:1001600001031847940E0000B40E0000103A24BF9B
:1001700078C878C1FAD8520724BF30C830C144BF0C
:1001800004680C607047000000230024002500264E
:10019000103A28BF78C1FBD8520728BF30C148BFEA
:1001A0000B6070471FB51FBD10B510BD00F031F8D2
:1001B0001146FFF7F7FF00F0FBFE00F04FF803B425
:1001C000FFF7F2FF03BC00F053F800000948804736
:1001D00009480047FEE7FEE7FEE7FEE7FEE7FEE729
:1001E000FEE7FEE7FEE7FEE704480549054A064B41
:1001F00070470000410C0008310100088800002011
:10020000880600208802002088020020704770477E
:100210007047754600F028F8AE460500694653461B
:1002200020F00700854618B020B5FFF7DDFFBDE8D8
:1002300020404FF000064FF000074FF000084FF04D
:10024000000B21F00701AC46ACE8C009ACE8C009DE
:10025000ACE8C009ACE8C0098D4670470446AFF36E
:1002600000802046FFF7ABFF0048704724000020C5
:1002700001491820ABBEFEE72600020070470000CF
:10028000F8B5214C2068642839D24FF4FA7540F251
:10029000DC56684600F03CFA00F0B0FA00F0AEFA26
:1002A000012809D120681E2806D22068032803D916
:1002B00000F02EF8284609E000F0A0FA03280DD13E
:1002C00020681E280AD200F023F8304600F01AF900
:1002D00000F046F8284600F015F9DAE720680A2809
:1002E0000ED2206803280BD900F012F8284600F03F
:1002F00009F900F0A9F84FF4967000F003F9F8BD81
:1003000000F02EFEC5E700001C000020FEE7000004
:1003100005496FF018000870044908700449087016
:100320000449087070470000040000200500002008
:10033000060000200700002005491E20054A08701D
:1003400018211170044A10700448017070470000B1
:100350000400002005000020060000200700002007
:1003600005496FF00900054A087028211170044AF8
:100370001070044801707047040000200500002040
:1003800006000020070000202DE9F041284D102133
:10039000284600F0BAF90421284600F0B6F92548AD
:1003A000E914264C90F900202348002A1BDD23681D
:1003B000934202D200F0A9F901E000F0A4F9012172
:1003C000284600F0A0F91E481E4F4FF4007690F921
:1003D0000000002813DD216881421FD240212846F9
:1003E00000F093F91EE0E8DA236852429342E4D227
:1003F00000F089F90121284600F087F9E3E70DDADA
:1004000021684042814209D24021284600F07BF910
:1004100031463846BDE8F04100F077B94021284622
:1004200000F071F931463846BDE8F04100F06BB993
:1004300000140140050000200010014000000020D1
:10044000060000200020014005492820054A0870C8
:100450006FF009011170044A107004480170704770
:1004600004000020050000200600002007000020F6
:1004700004490020087004490870044908700449C0
:1004800008707047040000200500002006000020CE
:1004900007000020704710B5044602E08C2000F0F1
:1004A00005F8641EE4B2F9D210BD000031B50C4D60
:1004B0000098012184B2284600F068FC21462846B5
:1004C00000F084FC03E0284600F06AFC0446012C9E
:1004D000F9D82846BDE83840002100F057BC00009C
:1004E0000004004000EBC0014FF0E02041610169D1
:1004F00041F0010101610169C903FCD500210161DD
:100500008161704700B502464FF47A7302E01846E5
:10051000FFF7E8FF521EFAD200BD00000549C86887
:10052000401CC8600F2803D30020C86000F0FAB850
:10053000704700001400002010B54FF4806420467E
:1005400000F010F8002806D0204600F005F8BDE8BD
:10055000104000F091B910BD0149086070470000DB
:1005600014040140064A014600201268044B0A4068
:1005700014331B680B4202D0002A00D001207047C0
:100580000004014030B51A4A8379016853B31368F7
:100590008B431360111D0B680468A3430B60017942
:1005A00011440B68046823430B60114B083319682E
:1005B0000468A14319601C1D21680568A9432160D6
:1005C0004179102905D011440A68006802430A6085
:1005D00030BD196802681143196021680068014341
:1005E000216030BD0079104402688A43026030BD4A
:1005F0000004014010B50121042000F065FA01213A
:10060000082000F061FA0121102000F05DFA0121BC
:10061000202000F059FA0121402000F055FA012174
:10062000802000F051FA0121BDE81040080200F0DE
:100630004BBA000010B58A0721F003040649120FD7
:1006400021440F238C6893409C438C608B689040BE
:1006500003438B6010BD000000000140F0B5CC7872
:10066000002204F00F03E40601D58C7823430C78B4
:100670004FF00F0C14F0FF0F4FF0010E1BD0056868
:100680000E880EFA02F42640A64210D196000CFA0B
:1006900006F725EA070703FA06F5CE783D43282E2C
:1006A00002D0482E02D002E0446100E00461521CF6
:1006B000082AE5D305600A88FF2A1CD9446800226D
:1006C00002F108060EFA06F50E882E40AE420ED153
:1006D00096000CFA06F7BC4303FA06F7CE783C43C3
:1006E000282E00D14561CE78482E00D10561521CDC
:1006F000082AE5D34460F0BD0246002092680A4211
:1007000000D00120704741617047016170470000CF
:1007100010B5044600F006F801490968216010BDD3
:100720001C0000202DE9F047304F4FF48076314611
:100730003846FFF7E8FF2E4C012020702D4D002198
:10074000284600F043FB0121284600F01FFB284605
:1007500000F026FB0B28FAD30220207031463846E1
:10076000FFF7D3FF0021284600F030FBA946002701
:100770004EF660284FF480451F4E04E0484600F0D6
:100780000FFB40450FD829463046FFF7B5FF00283C
:10079000F4D00021484600F019FB0CE0484600F078
:1007A000FFFA404507DD2770A7604846BDE8F047DF
:1007B000002100F0EBBA29463046FFF79DFF0128E3
:1007C000ECD04D46484600F0EBFA60600021284628
:1007D00000F0DCFA60684FF4FA6100EB00104000B2
:1007E00090FBF1F0A0602770BDE8F0870014014095
:1007F0001400002000080040000C01402DE9F041E9
:100800001A4F0026354604213846FFF775FF88B990
:10081000022408E004213846FFF76EFF012807D0C4
:100820000120FFF76FFE641E64B2002CF2D100E0DD
:1008300004B901260E4F80213846FFF75DFF88B9C5
:10084000022408E080213846FFF756FF012807D030
:100850000120FFF757FE641E64B2002CF2D100E0C5
:1008600004B902257019BDE8F081000000200140A4
:1008700000100140FEE700002DE9F04700240F20A2
:10088000FFF709FE3A4E4FF4806739463046FFF7CE
:1008900033FF012865D037492820087002E0012085
:1008A000FFF7F9FD39463046FFF726FF0028F6D05E
:1008B000DFF8C4900025B046002602E00120FFF7D3
:1008C000EAFD39464046FFF717FF0028F6D102E05F
:1008D0000120FFF7E0FD39464046FFF70DFF0028F5
:1008E000F6D006E00120FFF7D6FD641CE4B21E2C12
:1008F00037D239464046FFF7FFFE0028F2D119F8FB
:1009000005004946400809F80500082C03D340F0CB
:10091000800009F80500761C0024F6B2082ED0D31A
:100920006D1CEDB2042DC7D3C97899F80200C943F4
:10093000C9B2884215D11149432816D005DC1528C3
:1009400009D040280DD1492006E044280BD0462884
:1009500007D1412000E04220087007490120491ECC
:100960000870BDE8F0874320F6E74420F4E7000074
:10097000001401400D000020100000200C00002099
:100980000249CA684240CA60704700000020014026
:10099000FEE70000F8B54FF40050ADF8000002206B
:1009A0008DF802001C4E10248DF803406946304635
:1009B000FFF754FEE501ADF8005069463046FFF7F9
:1009C0004DFEADF8005069461448FFF747FE012080
:1009D000134DADF8000069462846FFF73FFE402062
:1009E000ADF8000069462846FFF738FE6001ADF813
:1009F000000069463046FFF731FEADF80040694619
:100A00002846FFF72BFE0420ADF800006946284673
:100A1000FFF724FEF8BD0000002001400010014057
:100A20000014014010B5FFF7B5FFBDE81040FFF717
:100A30001FBD704730B50F23C27801780125F2B190
:100A4000144A126801F1E02102F4E062C2F5E062AA
:100A5000120AC2F10404D3404278A24084781C40B8
:100A60001443220181F80024007800F01F018D401A
:100A70004009800000F1E020C0F8005130BD01F0D5
:100A80001F0085404809800000F1E020C0F8805137
:100A900030BD00000CED00E0024908430249086047
:100AA000704700000000FA050CED00E07047000000
:100AB000044A0029D16901D0014300E08143D1619A
:100AC0007047000000100240044A0029916901D0DB
:100AD000014300E081439161704700000010024033
:100AE000F8B54FF48070ADF8000048251B4E8DF826
:100AF000035003248DF8024069463046FFF7AEFDEF
:100B00004020ADF800008DF803508DF80240694692
:100B10003046FFF7A3FD1020ADF800008DF803501C
:100B20008DF8024069463046FFF798FD8020ADF809
:100B300000008DF803508DF8024069460848FFF721
:100B40008DFD0420ADF800008DF803508DF80240B3
:100B500069463046FFF782FDF8BD000000200140E5
:100B6000001001407047000038B50120ADF80000CA
:100B700010208DF803000320054C8DF80200694613
:100B80002046FFF76BFD01212046FFF7BEFD38BD73
:100B9000000801400CB5002226480092019201682D
:100BA00041F4803101604FF4A063016801F4003129
:100BB00001910099491C0091019911B9009999423C
:100BC000F3D10168890333D5012101911A490A68DB
:100BD00042F010020A600A6822F003020A600A6802
:100BE00042F002020A604168416041684160416828
:100BF00041F480614160416821F47C1141604168A9
:100C000041F4E8114160016841F0807101600168C0
:100C10008901FCD5416821F003014160416841F040
:100C2000020141604168C1F381010229FAD10CBD82
:100C300001920CBD001002400020024070470000ED
:100C40000C48016841F00101016041680A4A114005
:100C500041600168094A11400160016821F4802166
:100C60000160416821F4FE0141604FF41F01816081
:100C7000FFF790BF001002400000FFF8FFFFF6FEF4
:100C800070B501218C07204600F08CF800283AD07E
:100C90000121204600F077F81B4900240878401C09
:100CA000C0B208700A2810D30C7018490878401C8C
:100CB000087017490878401CC0B20870C82804D3CF
:100CC0000C704FF40040FFF75BFE12490868401CAF
:100CD0000860322800D30C60FFF756FB0E4D2878D1
:100CE000401CC1B20D48297002780D4891424FF066
:100CF000010102D8FFF709FD01E0FFF704FD2878A4
:100D0000C82800D32C7070BD0A0000200800002005
:100D10000B000020000000200E0000200900002031
:100D2000000801407FB501210846FFF7C1FE63209E
:100D3000ADF804004720ADF8000000244FF08045D6
:100D4000ADF80640ADF802406946284600F040F88C
:100D50000121284600F017F801221146284600F02C
:100D60002DF80121284600F011F81C208DF80C0008
:100D70008DF80D4001208DF80E008DF80F0003A8AE
:100D8000FFF758FE7FBDC9430182704700290188E3
:100D900002D041F0010101E021F001010180704722
:100DA000808C704702460020138A92890B4202EA27
:100DB000010202D0002A00D001207047002A828957
:100DC00001D00A4300E08A438281704781847047E2
:100DD00030B502881B4C1C4DA0420DD0A8420BD050
:100DE000B0F1804F08D0194B984205D0184B98426B
:100DF00002D0184B984203D122F070034A881A435C
:100E0000154B984206D0154B984203D022F44073FC
:100E1000CA881A4302808A8882850A880285A0428D
:100E20000AD0A84208D00E4A904205D00D4A9042FE
:100E300002D00D4A904201D1097A018601218182B6
:100E400030BD0000002C014000340140000400408F
:100E500000080040000C004000100040001400405A
:100E60000040014000440140004801400EB501210E
:100E70000420FFF71DFE4FF6FF70ADF80400472079
:100E8000ADF800000020ADF8020069460148FFF708
:100E90009FFF0EBD000800402DE9FF414FF4804543
:100EA000ADF8005048208DF8030003248DF802406F
:100EB00069461C48FFF7D2FBAE11ADF80060102068
:100EC0008DF80300184F8DF8024069463846FFF749
:100ED000C5FB0E210120FFF7ADFB0C2001958DF81D
:100EE000090000258DF808508DF80A5001A8FFF779
:100EF00049FB4FF4E060FFF7CFFD28208DF80C0090
:100F00008DF80D508DF80E4001208DF80F0003A8CC
:100F1000FFF790FDFFF7AAFF31463846FFF7F5FBD4
:100F2000BDE8FF81000C014000140140FEE7000015
:100F300038B54FF40044ADF8004010208DF80300A0
:100F40000320064D8DF8020069462846FFF786FB10
:100F500021462846FFF7D9FB38BD0000002001409C
:100F600010B5FFF74BFC0D4970B1012807D00228DE
:100F700013D143200870FFF767FA642009E044208A
:100F80000870FFF7EDF9F8E741200870FFF7D4F992
:100F90000A20BDE81040FFF7B5BA10BD0C000020D4
:100FA0004FF0E020016921F0040101617047000069
:100FB000FFF7F6FFFFF71EFBFFF7BAFFFFF7B2FEE2
:100FC000FFF730FDFFF768FFFFF78AFDFFF7CCFD65
:100FD000084C0F2060704FF4FA70FFF793FA002569
:100FE00020780528FCD32570FFF798FAFFF748F919
:100FF000F6E700000800002018100008000000209C
:10100000240000006C0100083C10000824000020AF
:101010006406000088010008000000002828282835
:10102000000B00004900000000000000000000006C
:0C103000000000000000000000000000B4
:0400000508000131BD
:00000001FF
