:020000040800F2
:1000000028040020450100086D0C000811080008B4
:10001000C90B000801020008691100080000000077
:10002000000000000000000000000000590D000862
:10003000C503000800000000150D0008710E00083F
:100040005F0100085F0100085F0100085F01000810
:100050005F0100085F0100085F0100085F01000800
:100060005F0100085F0100085F0100085F010008F0
:100070005F0100085F0100085F0100085F010008E0
:100080005F0100085F0100085F0100085F010008D0
:100090005F0100085F0100085F0100085F010008C0
:1000A0005F0100085F0100085F0100085F010008B0
:1000B000C90E00085F0100085F0100085F01000829
:1000C0005F0100085F0100085F0100085F01000890
:1000D0005F0100085F0100085F0100085F01000880
:1000E000810400085F0100085F0100085F0100084B
:1000F0005F0100085F0100085F0100085F01000860
:100100005F0100085F0100085F0100085F0100084F
:100110005F0100085F0100085F0100085F0100083F
:100120005F0100085F0100085F0100085F0100082F
:10013000DFF80CD000F02EF8004800474115000809
:10014000280400200648804706480047FEE7FEE7EF
:10015000FEE7FEE7FEE7FEE7FEE7FEE7FEE7FEE777
:10016000750E00083101000830B50B46014600202D
:100170002022012409E021FA02F59D4205D303FA69
:1001800002F5491B04FA02F52844151EA2F10102EA
:10019000F1DC30BD064C074D06E0E06840F001039D
:1001A00094E8070098471034AC42F6D3FFF7C4FF39
:1001B0002C1600084C1600080F4800680F2803D2C0
:1001C0000D4800680A2803D80B4800681E2803D988
:1001D00049200A4908707047074800680A2802D871
:1001E000422006490870044800680F2802D34120C5
:1001F0000249087000BFEEE714000020090000204B
:1002000000BFFEE7D8200249087002490870704715
:10021000040000200500002028200249087002493F
:1002200008707047040000200500002028200349C2
:100230000870EC200249087070470000040000209C
:100240000500002010B510214D4800F05FFA042190
:100250004B4800F05BFA4B4890F9000000281ADD8B
:1002600049480068474991F90010884209D2402165
:10027000434800F04BFA4FF40071444800F044FA50
:1002800033E040213E4800F03FFA4FF400713F4810
:1002900000F03AFA29E03B4890F9000000281BDA08
:1002A000384890F90000404237490968884209D926
:1002B0004021334800F028FA4FF40071334800F031
:1002C00025FA12E040212E4800F01EFA4FF400718A
:1002D0002E4800F019FA08E04021294800F014FAED
:1002E0004FF40071294800F00FFA294890F90000F6
:1002F00000281ADD24480068254991F90010884239
:1003000009D24FF40061234800F000FA01211C4893
:1003100000F0FAF933E04FF400611E4800F0F4F900
:100320000121174800F0F0F929E0194890F9000080
:1003300000281BDA164890F900004042124909686B
:10034000884209D94FF40061124800F0DDF901211B
:100350000B4800F0DBF912E04FF400610D4800F0AB
:10036000D3F90121064800F0CFF908E04FF400610D
:10037000084800F0C9F90121014800F0C5F910BD95
:100380000014014004000020000000200020014073
:100390000500002000100140EC20034908703220C5
:1003A000024908707047000004000020050000208A
:1003B00000200249087002490870704704000020BC
:1003C00005000020704710B5044602E08C2000F0C4
:1003D00007F82000A4F10101CCB2F7D110BD000054
:1003E00031B5009884B20121094800F0C5FD2146CD
:1003F000074800F0EAFD03E0054800F0C9FD0446A7
:10040000012CF9DC0021024800F0B6FD38BD0000E7
:100410000004004000EBC0014FF0E02251611146A2
:10042000096941F00101116100BF4FF0E021096944
:1004300001F480310029F8D000214FF0E022116151
:100440009161704700B5034603E04FF47A70FFF7FF
:10045000E1FF1800A3F10103F7D100BD10B5074873
:100460000068401C05490860084600680F2803D34F
:100470000020086000F04CF910BD00001C000020B6
:1004800010B54FF4806000F00FF828B14FF4806091
:1004900000F004F800F0FCF910BD0000014908600C
:1004A0007047000014040140014600200022074B61
:1004B0001B6803EA0102054B14331B680B4013B1A0
:1004C0000AB1012000E00020704700000004014054
:1004D000002123498279002A3AD00A46126803682B
:1004E0009A430B461A600A1D126803689A430B1D53
:1004F0001A60027911440A6803681A430A60184AAC
:100500000832126803689A43154B08331A601A1DA3
:10051000126803689A43124B0C331A604279102A0E
:100520000ED11A1F126803681A430D4B08331A6064
:100530001A1D126803681A43094B0C331A600DE048
:100540000749427911440A6803681A430A6005E0C2
:10055000027911440A6803689A430A6070470000F0
:100560000004014010B50121042000F0E5FB012149
:10057000082000F0E1FB0121102000F0DDFB01214B
:10058000202000F0D9FB0121402000F0D5FB012103
:10059000802000F0D1FB0121080200F0CDFB10BD4E
:1005A00030B500228B071C0F0F2303FA04F20B4B0C
:1005B0008C1053F824309343084C8D1044F82530A8
:1005C00023468C1053F824308C07240F00FA04F4CF
:1005D0002343024C8D1044F8253030BD0800014003
:1005E0002DE9F041024600250026002000230024CA
:1005F000002791F803C00CF00F0591F803C00CF030
:10060000100CBCF1000F03D091F802C04CEA0505B4
:1006100091F800C0BCF1000F31D0146800202BE02D
:100620004FF0010C0CFA00F3B1F800C00CEA03061D
:100630009E4220D183004FF00F0C0CFA03F7BC430D
:1006400005FA03FC4CEA040491F803C0BCF1280F3E
:1006500006D14FF0010C0CFA00FCC2F814C00AE0FD
:1006600091F803C0BCF1480F05D14FF0010C0CFA12
:1006700000FCC2F810C0401C0828D1D31460B1F8A7
:1006800000C0BCF1FF0F34DD546800202EE000F103
:10069000080C4FF0010808FA0CF3B1F800C00CEA9E
:1006A00003069E4221D183004FF00F0C0CFA03F792
:1006B000BC4305FA03FC4CEA040491F803C0BCF106
:1006C000280F05D100F1080C08FA0CF8C2F81480C4
:1006D00091F803C0BCF1480F07D100F1080C4FF0AE
:1006E000010808FA0CF8C2F81080401C0828CED384
:1006F0005460BDE8F0810246002093680B400BB1C6
:10070000012000E00020704741617047016170479F
:1007100010B54FF480713848FFF7F6FF01203749D4
:1007200008700021364800F050FC0121344800F0E8
:1007300023FC00BF324800F02BFC0B28FADB022020
:100740002E490870C1012C48FFF7E0FF00212C481A
:1007500000F03BFC10E02A4800F01AFC4EF6602145
:10076000884209DD002025490870264908600021DB
:10077000234800F001FC10BD4FF480412248FFF7F0
:10078000BAFF0028E7D000211D4800F01EFC12E04F
:100790001B4800F0FDFB04464EF66020844209DD54
:1007A000002016490870174908600021144800F01D
:1007B000E3FBE0E700BF4FF480411348FFF79BFFE6
:1007C0000128E5D00E4800F0E3FB10490860002145
:1007D0000B4800F0D1FB0D48006800EB0010400012
:1007E0004FF4FA6190FBF1F00649086000200349DC
:1007F000087000BFBFE70000001401400C0000209B
:100800000008004014000020000C014010000020EF
:1008100000BFFEE71FB50121084600F08DFA4FF436
:100820008060ADF80C0048208DF80F0003208DF893
:100830000E0003A91548FFF7D3FE0A210320FFF796
:10084000AFFE4FF4806001900C208DF8090000206D
:100850008DF8080001208DF80A0001A8FFF738FE86
:100860004FF4E06000F03CFA28208DF800000020F2
:100870008DF801008DF8020001208DF80300684614
:1008800000F0F6F900F0F6FB1FBD00000014014077
:1008900070B500260F20FFF796FD4FF480614248A7
:1008A000FFF729FF012800D170BD28203F490870BB
:1008B00002E00120FFF787FD4FF480613A48FFF71F
:1008C0001AFF0028F5D000243AE0002534E002E0C9
:1008D0000120FFF778FD4FF480613348FFF70BFFED
:1008E0000028F5D102E00120FFF76DFD4FF4806193
:1008F0002D48FFF700FF0028F5D007E00120FFF7A3
:1009000062FD701CC6B21E2E00DBCDE74FF4806185
:100910002548FFF7F0FE0028F0D12548005D401083
:1009200023490855082E04DB0846005D40F080008E
:1009300008550026681CC5B2082DC8DB601CC4B26F
:10094000042CC2DB1A48C078C043C5B2184880786E
:10095000A84200D0A8E716488078432815D004DCC8
:1009600015280AD0402818D113E0442809D0462879
:1009700013D141200F49087010E042200D49087042
:100980000CE043200B49087008E044200949087036
:1009900004E049200749087000E085E700BF012016
:1009A0000549087000BF7FE7001401400B000020DC
:1009B00021000020090000202000002010B50024A4
:1009C00000F032F86420FFF73DFD382000F098F881
:1009D0000C2000F095F8062000F092F8012000F0BD
:1009E0008FF86420FFF72EFD802000F089F800BF0B
:1009F00005E00B49085D00F0B5F8601C44B20A2C14
:100A0000F7DBC02000F07CF8002405E00549085D14
:100A100000F0A8F8601C44B2082CF7DB10BD000001
:100A2000181600082316000808B54FF40050ADF85A
:100A3000000010208DF8030003208DF802006946A5
:100A40001648FFF7CDFD4FF48040ADF800001020B0
:100A50008DF8030003208DF8020069460F48FFF768
:100A6000BFFD4FF40040ADF8000010208DF80300EA
:100A700003208DF8020069460848FFF7B1FDFF200A
:100A8000ADF8000010208DF8030003208DF802005F
:100A900069460348FFF7A4FD08BD000000100140AF
:100AA000001C014010B50446C92000F029F8E0B24E
:100AB00000F058F810BD000038B5054600240020AD
:100AC0008DF803002A4608A1684600F065FB8A20DD
:100AD00000F016F800BF04E01DF8040000F042F832
:100AE000641C032CF8DB38BD2530336400000000A3
:100AF000024909684140014A116070470C0C0140ED
:100B000010B504461420FFF785FC4FF47F0013490D
:100B100008600846046041141148FFF7F5FD4FF4E2
:100B200080410F48FFF7F0FD4FF400410C48FFF7FC
:100B3000EBFD0A20FFF76EFC4FF400410848FFF779
:100B4000E5FD0A20FFF766FC4FF400410448FFF77B
:100B5000DBFD0A20FFF75EFC10BD0000101C014009
:100B60000010014010B504461420FFF753FC4FF469
:100B70007F00134908600846046041141148FFF7DC
:100B8000C5FD4FF480410F48FFF7BEFD4FF4004113
:100B90000C48FFF7B9FD0A20FFF73CFC4FF4004179
:100BA0000848FFF7B3FD0A20FFF734FC4FF400417B
:100BB0000448FFF7A9FD0A20FFF72CFC10BD000038
:100BC000101C01400010014000BFFEE708B54FF4C3
:100BD0000050ADF8000002208DF8020010208DF8C2
:100BE000030069461B48FFF7FBFC4FF40060ADF8BB
:100BF000000069461748FFF7F3FC4FF40060ADF8BA
:100C0000000069461448FFF7EBFC0120ADF8000036
:100C100069461248FFF7E4FC4020ADF80000694641
:100C20000E48FFF7DDFC4FF40070ADF80000694698
:100C30000848FFF7D5FC1020ADF8000069460748CA
:100C4000FFF7CEFC0420ADF8000069460348FFF72B
:100C5000C7FC08BD00200140001001400014014005
:100C600010B5FFF7B3FFFFF7A3FB10BD70470000FF
:100C700070B5002100230F22C47804B3154C2468FA
:100C800004F4E064C4F5E064210AC1F10403CA403D
:100C9000447804FA03F184781440214309010E4C8E
:100CA0000678A155047804F01F050124AC400578AE
:100CB0006D11AD0005F1E025C5F8004109E00478AB
:100CC00004F01F050124AC40044D0678761145F868
:100CD000264070BD0CED00E000E400E080E100E0A3
:100CE00002490143024A1160704700000000FA0502
:100CF0000CED00E008B51C208DF8000000208DF8F8
:100D0000010001208DF802008DF803006846FFF70E
:100D1000AFFF08BD7047000029B1064AD2690243FF
:100D2000044BDA6104E0034AD2698243014BDA6181
:100D3000704700000010024029B1064A9269024340
:100D4000044B9A6104E0034A92698243014B9A6121
:100D500070470000001002407047000008B50120F5
:100D6000ADF8000010208DF8030003208DF802007C
:100D700069460448FFF734FC01210248FFF7C6FC2E
:100D800008BD00000008014010B500F001F810BDDA
:100D90000CB50020019000903348006840F480308A
:100DA0003149086000BF3048006800F4003000900E
:100DB0000198401C0190009818B90198B0F5A06FF7
:100DC000F1D12948006800F4003010B101200090F2
:100DD00001E0002000900098012843D123480068DA
:100DE00040F01000214908600846006820F0030028
:100DF00008600846006840F0020008601A48406831
:100E0000194948600846406848600846406840F410
:100E1000806048600846406820F47C1048600846BE
:100E2000406840F4E81048600846006840F0807070
:100E3000086000BF0C48006800F000700028F9D07E
:100E40000948406820F003000749486008464068A8
:100E500040F00200486000BF0348406800F00C000A
:100E60000828F9D10CBD000000100240002002400B
:100E70007047000010B51148006840F001000F49AC
:100E80000860084640680E4908400C49486008461A
:100E900000680C490840094908600846006820F4C9
:100EA000802008600846406820F4FE0048604FF447
:100EB0001F008860FFF768FF10BD000000100240AF
:100EC0000000FFF8FFFFF6FE10B50121880700F0D3
:100ED00062F808B30121880700F04BF80F4800784A
:100EE000401C0E490870084600780A2814DB0020D0
:100EF00008700B480068401C0949086009480078E0
:100F0000401C0849087006480068322802D30020B7
:100F100003490860FFF796F910BD000007000020A4
:100F200000000020060000200EB501210846FFF752
:100F3000F3FE6320ADF804004720ADF80000002068
:100F4000ADF80600ADF8020069464FF0804000F0B1
:100F50003FF80121880700F00CF8012211469007A4
:100F600000F02AF80121880700F006F8FFF7C2FE1A
:100F70000EBDCA430282704721B1028842F00102CD
:100F8000028004E002884FF6FE731A400280704728
:100F90000146888C704730B50246002000230024AB
:100FA000158A05EA0103958905EA010413B10CB11C
:100FB000012000E0002030BD1AB183890B438381FA
:100FC00002E083898B4383817047818470470000EE
:100FD000002202881D4B98420ED01D4B98420BD028
:100FE000B0F1804F08D01B4B984205D01A4B984265
:100FF00002D01A4B984204D14FF68F731A404B8897
:101000001A43174B984207D0164B984204D04FF61C
:10101000FF431A40CB881A4302808B8883850B8854
:1010200003850A4B98420BD0094B984208D00E4BCF
:10103000984205D00D4B984202D00D4B984201D1F9
:101040000B7A03860123838270470000002C014045
:10105000003401400004004000080040000C004043
:1010600000100040001400400040014000440140D6
:10107000004801400EB501210220FFF74DFE01207E
:10108000ADF804004720ADF800001020ADF80200D4
:1010900069460248FFF79CFF0EBD000000040040B7
:1010A0000EB501210420FFF737FE4FF6FF70ADF8B3
:1010B00004004720ADF800000020ADF802006946AA
:1010C0000148FFF785FF0EBD000800401FB54FF433
:1010D0008040ADF80C0048208DF80F0003208DF8FB
:1010E0000E0003A91E48FFF77BFA4FF48070ADF89D
:1010F0000C0010208DF80F0003208DF80E0003A9BE
:101100001848FFF76DFA0E210120FFF749FA4FF456
:10111000804001900C208DF8090000208DF8080017
:101120008DF80A0001A8FFF7D3F94FF4E060FFF74C
:10113000D7FD28208DF8000000208DF80100032045
:101140008DF8020001208DF803006846FFF790FD3E
:10115000FFF7A6FF4FF480710248FFF7D7FA1FBDD3
:10116000000C01400014014000BFFEE708B501205B
:10117000ADF8000010208DF8030003208DF8020068
:1011800069460448FFF72CFA01210248FFF7BEFA2E
:1011900008BD0000000C01400FB4084B10B504A9B5
:1011A00002AA039800F01CF8044602A9002000F0EF
:1011B000B8F9204610BC5DF814FB000023150008A8
:1011C00002E008C8121F08C1002AFAD17047704710
:1011D000002001E001C1121F002AFBD1704700006E
:1011E0002DE9FF4F8BB088460546002606E02528EE
:1011F0000BD0DDE90D1290476D1C761C2878002875
:10120000F5D10FB03046BDE8F08F0024A146A246CC
:101210000122AE4900E0044315F8013F203B02FAE9
:1012200003F00842F7D128782A2810D06FF02F0257
:101230002878A0F13001092915D809EB890102EBC2
:10124000410144F0020400EB01096D1CF0E758F87D
:10125000041B5FEA010903D544F40054C9F10009F5
:1012600044F002046D1C28782E2817D115F8010FC0
:1012700044F004042A280ED06FF02F022878A0F141
:10128000300109290AD80AEB8A0102EB410100EB7F
:10129000010A6D1CF2E758F804AB6D1C28786C2825
:1012A0000FD006DC4C2817D068280DD06A2814D13E
:1012B00004E0742810D07A280FD10DE044F4001413
:1012C0000AE044F4801401E044F440146978814257
:1012D00002D104F580146D1C6D1C2878692865D036
:1012E00006DC00288DD0632827D0642806D15DE075
:1012F0006E2808D073282AD0752877D0DDE90D1222
:101300009047761CE0E0C4F30250022809D003287D
:101310000DD0D8F8001004280DD00E6008F1040894
:10132000D2E0D8F80010F217C1E90062F6E7D8F869
:1013300000100E80F2E70E70F0E718F8041B8DF82D
:10134000001000208DF80100EB46012003E058F862
:1013500004BB4FF0FF3061074FF0000701D40AE0F3
:101360007F1C57450DDA8742FADB1BF8071000296E
:10137000F6D106E07F1C8742FCDB1BF80710002932
:10138000F8D1DDE90D23A9EB07008146214600F0E5
:10139000B1F83044C61904E0DDE90D121BF8010B69
:1013A00090477F1EF8D22146484688E058F8040B43
:1013B000C4F302514FF00A0B032900D100B20429F3
:1013C00000D140B2002802DA40422D2102E021057E
:1013D00005D52B218DF82410012104E006E0E1075A
:1013E00010D02021F6E708AF089113E058F8040B5D
:1013F000C4F302514FF00A0B032900D180B2042933
:1014000000D1C0B20021EEE75946FEF7ADFE303103
:1014100007F8011D0028F7D1ADEB070000F1200B04
:10142000600702D524F4803401E04FF0010ADA4568
:1014300002DDAAEB0B0000E00020824600EB0B016E
:1014400008980144A9EB01000A90E00306D4DDE905
:101450000D2321460A9800F04DF806444FF000098C
:1014600008E009A911F80900DDE90D12904709F11A
:101470000109761C08998945F3DBE0030CD5DDE909
:101480000D2321460A9800F035F8064404E0DDE912
:101490000D1230209047761CBAF10001AAF1010A22
:1014A000F5DC05E0DDE90D1217F8010B9047761C1D
:1014B000BBF10001ABF1010BF4DC0A982146DDE938
:1014C0000D2300F005F806446D1C97E6092801007D
:1014D0002DE9F041044600251E461746880404D431
:1014E00005E039462020B0476D1C641EF9D528461A
:1014F000BDE8F0812DE9F041044600251E469046E6
:10150000C80301D5302700E02027880404D505E072
:1015100041463846B0476D1C641EF9D52846BDE8E3
:10152000F0810A68531C0B60107070474FF0E02088
:10153000006920F004004FF0E021086170470000CE
:10154000FFF7F4FFFFF70EF8FFF710FEFFF736FA8C
:10155000FFF760F9FFF7E8FCFFF782FBFFF7B6FD46
:10156000FFF7FCFB4CE027480078052848DB00200B
:101570002449087024480078401C23490870084614
:101580000078282808DB002008700120FFF7B0FA57
:101590001E480068FFF790FAFEF760FFFEF70CFEAA
:1015A0001B4890F900001B4991F90010884227D090
:1015B000184890F9000016490870164890F9000084
:1015C0004138092815D2DFE800F005080B0E141485
:1015D00014141100FEF720FE0CE0FEF713FE09E0E4
:1015E000FEF724FE06E0FEF7D7FE03E0FEF7E0FE7E
:1015F00000E000BF00BF074890F90000FFF752FA73
:10160000B1E70000060000200800002014000020C0
:101610000A0000200900002044697374616E63654C
:101620003A2000436F6D6D616E643A004C160008FD
:101630000000002028000000C011000874160008F7
:101640002800002000040000D01100080000000065
:1016500028280000004949000000000000000000A8
:10166000000000000000000000000000000000007A
:041670000000000076
:0400000508000145A9
:00000001FF
