:020000040800F2
:1000000088060020D5010008C30D0008290A000851
:10001000210D0008A30500081913000800000000C6
:10002000000000000000000000000000F50E0008C5
:10003000D5060008000000003D0E000879100008F9
:10004000EF010008EF010008EF010008EF010008D0
:10005000EF010008EF010008EF010008EF010008C0
:10006000EF010008EF010008EF010008EF010008B0
:10007000EF010008EF010008EF010008EF010008A0
:10008000EF010008EF010008EF010008EF01000890
:10009000EF010008EF010008EF010008EF01000880
:1000A000EF010008EF010008EF010008EF01000870
:1000B000BD100008EF010008EF010008EF01000883
:1000C000EF010008EF010008EF010008EF01000850
:1000D000EF010008EF010008EF010008EF01000840
:1000E00079070008EF010008EF010008EF010008A0
:1000F000EF010008EF010008EF010008EF01000820
:10010000EF010008EF010008EF010008EF0100080F
:10011000EF010008EF010008EF010008EF010008FF
:10012000EF010008EF010008EF010008EF010008EF
:1001300000F002F800F03FF80AA090E8000C8244BA
:100140008344AAF10107DA4501D100F034F8AFF297
:10015000090EBAE80F0013F0010F18BFFB1A43F0A5
:1001600001031847D8120000F8120000103A24BF0B
:1001700078C878C1FAD8520724BF30C830C144BF0C
:1001800004680C607047000000230024002500264E
:10019000103A28BF78C1FBD8520728BF30C148BFEA
:1001A0000B607047642900F07180002070471FB514
:1001B0001FBD10B510BD00F0BAF91146FFF7F7FFEB
:1001C00001F0D2F800F0D8F903B4FFF7F2FF03BC56
:1001D00000F0E0F90948804709480047FEE7FEE7DC
:1001E000FEE7FEE7FEE7FEE7FEE7FEE7FEE7FEE7E7
:1001F00004480549054A064B704700007D10000879
:1002000031010008880000208806002088020020B4
:10021000880200200FB41CB5074B06AA7B44694630
:100220000090059800F06BF90020694600F07AF91B
:100230001CBC5DF814FB00000503000070B504460B
:1002400085690068C10601D5302600E02026C00778
:1002500007D070BDD4E9012130469047206A401C88
:1002600020626D1EF6D570BD70B5044685690078B4
:10027000C00707D170BDD4E9012120209047206A32
:10028000401C20626D1EF6D570BD00002DE9F041C6
:100290000646002410687529314616A510D0AFF324
:1002A0000080002802DA404213A507E031688A077F
:1002B00001D512A502E0490704D511A5012401E0EA
:1002C000AFF3008000210A2206F1240709E0B0FB09
:1002D000F2FCB0FBF2F302FB1C00303078541846FD
:1002E000491C0028F3D123462A463046BDE8F04198
:1002F00000F0A7B8000000002D0000002B00000057
:10030000200000002DE9F05F894604464FF0000A06
:10031000DFF824B1FB44C0F820A02046E1688847FC
:1003200000287DD0252806D0D4E901219047206AF5
:10033000401C2062F1E700255F462046E1688847BF
:100340002028064607DB312E05D2B81910F8200CFC
:1003500008B10543F1E7A80701D525F00405C4F865
:100360001CA00027C4F818A02A2E09D0304600F09F
:10037000EDFF38B304EB8708303EC8F8186019E089
:1003800059F8041B204604EB87029161E168884715
:10039000012F064618D1E069002820DA25F0200553
:1003A0001DE0D8F8180000EB800006EB4000303864
:1003B000C8F818002046E1688847064600F0C6FFE6
:1003C0000028EED1012F0AD02E2E08D12046E16858
:1003D00088477F1C0646022F45F02005C4DBA06934
:1003E000002803DA404245F00105A061E80701D08A
:1003F00025F01005A6B1A6F14100192802D8203633
:1004000045F400654A463146204625604D46FFF7D3
:10041000C9FE60B1012807D0ED1D25F0070000E0FE
:1004200007E000F1080978E705F1040975E73046AF
:100430007AE7206ABDE8F09F10110000704770470E
:1004400070472DE9F0470D4699469246044600F163
:1004500024080168880604D5E06921F010012160B4
:1004600000E00120A84201DD471B00E00027A16950
:100470007A1902EB0900081AA0612078C00602D49C
:100480002046FFF7DBFE002608E0D4E901211AF838
:1004900006009047206A401C761C20624E45F4DB23
:1004A0002078C0060AD52046FFF7C8FE06E0D4E94A
:1004B000012130209047206A401C2062381EA7F19D
:1004C0000107F4DC07E0D4E9012118F805009047A2
:1004D000206A401C2062281EA5F10105F3DC20469D
:1004E000FFF7C2FE2078000602D50220BDE8F087A3
:1004F0000120FBE701694A1C02610878704700B5DA
:100500008FB0CDE901310021059105497944CDE94C
:10051000031011466846FFF7F5FE0FB000BD00005E
:10052000E5FFFFFF0A6802F8010B0A607047754695
:1005300000F02CF8AE4605006946534620F007004F
:10054000854618B020B5FFF753FEBDE820404FF0B8
:1005500000064FF000074FF000084FF0000B21F0AD
:100560000701AC46ACE8C009ACE8C009ACE8C0097A
:10057000ACE8C0098D46704710B50446AFF3008063
:100580002046BDE81040FFF71FBE0000004870473E
:100590002400002001491820ABBEFEE7260002001F
:1005A0007047FEE703496FF01300087002490870B6
:1005B00070470000040000200500002002491420BC
:1005C00008700249087070470400002005000020F0
:1005D00003491E2008700349EC2008707047000092
:1005E00004000020050000202DE9F041284D1021D5
:1005F000284600F0AAF90421284600F0A6F925486B
:10060000E914264C90F900202348002A1BDD2368BA
:10061000934202D200F099F901E000F094F901212F
:10062000284600F090F91E481E4F4FF4007690F9CE
:100630000000002813DD216881421FD24021284696
:1006400000F083F91EE0E8DA236852429342E4D2D4
:1006500000F079F90121284600F077F9E3E70DDA97
:1006600021684042814209D24021284600F06BF9BE
:1006700031463846BDE8F04100F067B940212846D0
:1006800000F061F931463846BDE8F04100F05BB951
:100690000014014004000020001001400000002070
:1006A00005000020002001400349EC2008700349A8
:1006B0001E20087070470000040000200500002084
:1006C00002490020087002490870704704000020A9
:1006D00005000020704710B5044602E08C2000F0B1
:1006E00005F8641EE4B2F9D210BD000031B50C4D1E
:1006F0000098012184B2284600F040FD214628469A
:1007000000F05CFD03E0284600F042FD0446012CA9
:10071000F9D82846BDE83840002100F02FBD000080
:100720000004004000EBC0014FF0E020416101698E
:1007300041F0010101610169C903FCD5002101619A
:100740008161704700B502464FF47A7302E01846A3
:10075000FFF7E8FF521EFAD200BD00000549C86845
:10076000401CC8600F2803D30020C86000F0F0B818
:10077000704700001400002010B54FF4806420463C
:1007800000F010F8002806D0204600F005F8BDE87B
:10079000104000F04BB910BD0149086070470000DF
:1007A00014040140064A014600201268044B0A4026
:1007B00014331B680B4202D0002A00D0012070477E
:1007C0000004014030B51A4A8379016853B31368B5
:1007D0008B431360111D0B680468A3430B60017900
:1007E00011440B68046823430B60114B08331968EC
:1007F0000468A14319601C1D21680568A943216094
:100800004179102905D011440A68006802430A6042
:1008100030BD1968026811431960216800680143FE
:10082000216030BD0079104402688A43026030BD07
:100830000004014010B50121042000F00DFB01214E
:10084000082000F009FB0121102000F005FB012128
:10085000202000F001FB0121402000F0FDFA0121E1
:10086000802000F0F9FA0121BDE81040080200F0F4
:10087000F3BA000010B58A0721F003040649120FED
:1008800021440F238C6893409C438C608B6890407C
:1008900003438B6010BD000000000140F0B5CC7830
:1008A000002204F00F03E40601D58C7823430C7872
:1008B0004FF00F0C14F0FF0F4FF0010E1BD0056826
:1008C0000E880EFA02F42640A64210D196000CFAC9
:1008D00006F725EA070703FA06F5CE783D43282EEA
:1008E00002D0482E02D002E0446100E00461521CB4
:1008F000082AE5D305600A88FF2A1CD9446800222B
:1009000002F108060EFA06F50E882E40AE420ED110
:1009100096000CFA06F7BC4303FA06F7CE783C4380
:10092000282E00D14561CE78482E00D10561521C99
:10093000082AE5D34460F0BD0246002092680A42CE
:1009400000D001207047416170470161704700008D
:100950002DE9F047304F4FF4807631463846FFF7A7
:10096000F2FF2E4C012020702D4D0021284600F072
:1009700025FC0121284600F001FC284600F008FC77
:100980000B28FAD30220207031463846FFF7DDFFEE
:100990000021284600F012FCA94600274EF66028E8
:1009A0004FF480451F4E04E0484600F0F1FB4045FF
:1009B0000FD829463046FFF7BFFF0028F4D00021AA
:1009C000484600F0FBFB0CE0484600F0E1FB4045E8
:1009D00007DD2770A7604846BDE8F047002100F01A
:1009E000CDBB29463046FFF7A7FF0128ECD04D4686
:1009F000484600F0CDFB60600021284600F0BEFBB9
:100A000060684FF4FA6100EB0010400090FBF1F0D9
:100A1000A0602770BDE8F08700140140140000209A
:100A200000080040000C0140FEE700002DE9F047FF
:100A300000240F20FFF74FFE3A4E4FF480673946EF
:100A40003046FFF779FF012865D037492820087024
:100A500002E00120FFF73FFE39463046FFF76CFF0A
:100A60000028F6D0DFF8C4900025B046002602E04A
:100A70000120FFF730FE39464046FFF75DFF0028B2
:100A8000F6D102E00120FFF726FE39464046FFF787
:100A900053FF0028F6D006E00120FFF71CFE641C7F
:100AA000E4B21E2C37D239464046FFF745FF0028F6
:100AB000F2D119F805004946400809F80500082C4C
:100AC00003D340F0800009F80500761C0024F6B23C
:100AD000082ED0D36D1CEDB2042DC7D3C97899F878
:100AE0000200C943C9B2884215D11149432816D022
:100AF00005DC152809D040280DD1492006E04428FE
:100B00000BD0462807D1412000E042200870074959
:100B10000120491E0870BDE8F0874320F6E7442015
:100B2000F4E70000001401400B0000200D0000203D
:100B30000800002070B5002400F02EF86420FFF7B4
:100B400001FE382000F088F80C2000F085F806201F
:100B500000F082F8012000F07FF86420FFF7F2FD3A
:100B6000802000F079F80B4D285D00F0A7F8641C98
:100B700064B20A2CF8DBC02000F06EF8054D0024AA
:100B80000B35285D00F09AF8641C64B2082CF8DB81
:100B900070BD000014140008F8B54FF40050ADF813
:100BA00000001025154E8DF8035003248DF80240E7
:100BB00069463046FFF772FEA802ADF800008DF8D6
:100BC00003508DF8024069463046FFF767FEE802A1
:100BD000ADF800008DF803508DF8024069463046AC
:100BE000FFF75CFEFF20ADF800008DF803508DF894
:100BF000024069460248FFF751FEF8BD001001406F
:100C0000001C014010B50446C92000F025F8E0B2F0
:100C1000BDE8104000F052B838B5002402468DF807
:100C2000034007A16846FFF7F5FA8A2000F014F8A0
:100C30006D46285D00F042F8641C032CF9DB38BDDA
:100C400025303364000000000249CA684240CA608F
:100C5000704700000020014070B504461420FFF7E3
:100C600061FD14494FF47F020A600C60124C491474
:100C70002046FFF768FE4FF480412046FFF763FEF1
:100C80004FF4004529462046FFF75DFE0A20FFF796
:100C900049FD29462046FFF758FE0A20FFF742FD8E
:100CA00029462046FFF74FFEBDE870400A20FFF7B7
:100CB00039BD0000101C01400010014070B5044611
:100CC0001420FFF72FFD14494FF47F020A600C60D7
:100CD000124C49142046FFF738FE4FF4804120465D
:100CE000FFF731FE4FF4004529462046FFF72BFE63
:100CF0000A20FFF717FD29462046FFF726FE0A20A7
:100D0000FFF710FD29462046FFF71DFEBDE87040A5
:100D10000A20FFF707BD0000101C01400010014031
:100D2000FEE70000F8B54FF40050ADF800000220D7
:100D30008DF802001C4E10248DF8034069463046A1
:100D4000FFF7ACFDE501ADF8005069463046FFF70E
:100D5000A5FDADF8005069461448FFF79FFD01203E
:100D6000134DADF8000069462846FFF797FD402077
:100D7000ADF8000069462846FFF790FD6001ADF828
:100D8000000069463046FFF789FDADF8004069462E
:100D90002846FFF783FD0420ADF800006946284689
:100DA000FFF77CFDF8BD000000200140001001406D
:100DB0000014014010B5FFF7B5FFBDE81040FFF784
:100DC0007FBC704730B50F23C27801780125F2B19E
:100DD000144A126801F1E02102F4E062C2F5E06217
:100DE000120AC2F10404D3404278A24084781C4025
:100DF0001443220181F80024007800F01F018D4087
:100E00004009800000F1E020C0F8005130BD01F041
:100E10001F0085404809800000F1E020C0F88051A3
:100E200030BD00000CED00E00249084302490860B3
:100E3000704700000000FA050CED00E0704700006C
:100E4000044A0029D16901D0014300E08143D16106
:100E50007047000000100240044A0029916901D047
:100E6000014300E08143916170470000001002409F
:100E7000F8B54FF48070ADF8000048251B4E8DF892
:100E8000035003248DF8024069463046FFF706FD03
:100E90004020ADF800008DF803508DF802406946FF
:100EA0003046FFF7FBFC1020ADF800008DF8035032
:100EB0008DF8024069463046FFF7F0FC8020ADF81F
:100EC00000008DF803508DF8024069460848FFF78E
:100ED000E5FC0420ADF800008DF803508DF80240C9
:100EE00069463046FFF7DAFCF8BD000000200140FB
:100EF00000100140704700002DE9F041254D4FF4EE
:100F0000807739462846FFF717FD4126224C0128F5
:100F10000BD110212846FFF70FFD012805D14021F4
:100F20002846FFF709FD012812D040212846FFF787
:100F300003FD01280FD010212846FFF7FDFC0128F2
:100F40000BD039462846FFF7F7FC012808D008E007
:100F5000A670BDE8F081442000E04320A07000E0CE
:100F6000A67010212846FFF7E7FC044640212846DA
:100F7000FFF7E2FC8442ECD1084C2068142801D22F
:100F8000FFF79EFB20681928E3D9BDE8F041FFF781
:100F900015BB000000200140060000201C000020BE
:100FA00038B54FF48054ADF8004010208DF80300A0
:100FB0000320064D8DF8020069462846FFF76EFCB7
:100FC00021462846FFF7C1FC38BD0000001401404F
:100FD0000CB50022264800920192016841F480314C
:100FE00001604FF4A063016801F4003101910099A0
:100FF000491C0091019911B900999942F3D10168F6
:10100000890333D5012101911A490A6842F010027F
:101010000A600A6822F003020A600A6842F00202CB
:101020000A604168416041684160416841F4806103
:101030004160416821F47C114160416841F4E8114C
:101040004160016841F08071016001688901FCD54F
:10105000416821F003014160416841F002014160B3
:101060004168C1F381010229FAD10CBD01920CBD86
:101070000010024000200240704700000C48016848
:1010800041F00101016041680A4A11404160016874
:10109000094A11400160016821F480210160416822
:1010A00021F4FE0141604FF41F018160FFF790BF02
:1010B000001002400000FFF8FFFFF6FE10B501210E
:1010C0008C07204600F066F800281BD0012120463E
:1010D00000F051F80C490878401CC0B208700A288A
:1010E00010D300240C700949094A0868401C0860A4
:1010F00013785B1C1370322800D30C60BDE81040DD
:10110000FFF772BA10BD00000A00002000000020A6
:10111000060000207FB501210846FFF791FE6320FD
:10112000ADF804004720ADF8000000244FF08045E2
:10113000ADF80640ADF802406946284600F040F898
:101140000121284600F017F801221146284600F038
:101150002DF80121284600F011F81C208DF80C0014
:101160008DF80D4001208DF80E008DF80F0003A8BA
:10117000FFF728FE7FBDC94301827047002901881F
:1011800002D041F0010101E021F00101018070472E
:10119000808C704702460020138A92890B4202EA33
:1011A000010202D0002A00D001207047002A828963
:1011B00001D00A4300E08A438281704781847047EE
:1011C00030B502881B4C1C4DA0420DD0A8420BD05C
:1011D000B0F1804F08D0194B984205D0184B984277
:1011E00002D0184B984203D122F070034A881A4368
:1011F000154B984206D0154B984203D022F4407309
:10120000CA881A4302808A8882850A880285A04299
:101210000AD0A84208D00E4A904205D00D4A90420A
:1012200002D00D4A904201D1097A018601218182C2
:1012300030BD0000002C014000340140000400409B
:1012400000080040000C0040001000400014004066
:101250000040014000440140004801400EB501211A
:101260000420FFF7EDFD4FF6FF70ADF804004720B6
:10127000ADF800000020ADF8020069460148FFF714
:101280009FFF0EBD000800402DE9FF414FF480454F
:10129000ADF8005048208DF803001E4F03248DF850
:1012A000024069463846FFF7F9FAAE11ADF8006022
:1012B00010208DF803008DF8024069463846FFF78C
:1012C000EDFA0E210120FFF7D5FA0C2001958DF8DB
:1012D000090000258DF808508DF80A5001A8FFF785
:1012E00071FA4FF4E060FFF79FFD28208DF80C00A5
:1012F0008DF80D508DF80E4001208DF80F0003A8D9
:10130000FFF760FDFFF7AAFF31463846FFF71DFBE8
:10131000BDE8FF8100140140FEE7000038B54FF43E
:101320000044ADF8004010208DF803000320064D66
:101330008DF8020069462846FFF7B0FA2146284694
:10134000FFF703FB38BD00000020014030380A28B9
:1013500001D201207047002070474FF0E020016962
:1013600021F0040101617047FFF7F7FFFFF762FA10
:10137000FFF7D4FFFFF7DEFBFFF7CCFEFFF71AFD08
:10138000FFF782FFFFF774FDFFF70AFE1F4C0025F1
:1013900020780528FCD325706078401CC0B26070AE
:1013A000282808D365704FF40040FFF74DFC18481B
:1013B0000068FFF731FCFFF7D1F9FFF79DFD94F9C5
:1013C000031094F902008142E2D0E070413809280C
:1013D00014D2DFE800F005080B0E131313131100ED
:1013E000FFF7ECF80AE0FFF7DDF807E0FFF7F0F8A9
:1013F00004E0FFF759F901E0FFF762F90A20FFF76F
:10140000A1F994F90200FFF7FDFBC1E706000020F7
:101410001C00002044697374616E63653A200043C8
:101420006F6D6D616E643A000400000800000000FA
:101430000000000200010000100000005C14000821
:1014400000000020240000006C0100088014000847
:10145000240000206406000088010008000000004D
:10146000282800004949000000000000000000009A
:10147000000000000000000000000000000000006C
:0400000508000131BD
:00000001FF
