:020000040800F2
:100000003004002049010008D10B000885070008D2
:100010002D0B0008BD010008CD10000800000000F5
:10002000000000000000000000000000BD0C0008FF
:100030003903000800000000790C0008D50D000805
:100040006301000863010008630100086301000800
:1000500063010008630100086301000863010008F0
:1000600063010008630100086301000863010008E0
:1000700063010008630100086301000863010008D0
:1000800063010008630100086301000863010008C0
:1000900063010008630100086301000863010008B0
:1000A00063010008630100086301000863010008A0
:1000B0002D0E0008630100086301000863010008B9
:1000C0006301000863010008630100086301000880
:1000D0006301000863010008630100086301000870
:1000E000F5030008630100086301000863010008CC
:1000F0006301000863010008630100086301000850
:10010000630100086301000863010008630100083F
:10011000630100086301000863010008630100082F
:10012000630100086301000863010008630100081F
:10013000DFF810D000F030F800480047A91400089C
:10014000AFF300803004002006488047064800478F
:10015000FEE7FEE7FEE7FEE7FEE7FEE7FEE7FEE777
:10016000FEE7FEE7D90D00083101000830B50B4667
:10017000014600202022012409E021FA02F59D42D7
:1001800005D303FA02F5491B04FA02F52844151EAB
:10019000A2F10102F1DC30BD064C074D06E0E0683B
:1001A00040F0010394E8070098471034AC42F6D3BE
:1001B000FFF7C2FF041500082415000800BFFEE782
:1001C00010B510214D4800F05BFA04214B4800F0B7
:1001D00057FA4B4890F9000000281ADD494800689A
:1001E000474991F90010884209D24FF4006146480E
:1001F00000F046FA0121414800F040FA33E04FF4A4
:100200000061414800F03AFA01213C4800F036FA1A
:1002100029E03B4890F9000000281BDA384890F9A3
:100220000000404237490968884209D94FF400610B
:10023000354800F023FA0121304800F021FA12E09D
:100240004FF40061304800F019FA01212B4800F00A
:1002500015FA08E04FF400612B4800F00FFA012175
:10026000264800F00BFA294890F9000000281ADD12
:1002700024480068254991F90010884209D240219C
:100280001E4800F0FDF94FF40071214800F0F6F926
:1002900033E04021194800F0F1F94FF400711C4897
:1002A00000F0ECF929E0194890F9000000281BDA69
:1002B000164890F90000404212490968884209D95D
:1002C00040210E4800F0DAF94FF40071104800F0B8
:1002D000D7F912E04021094800F0D0F94FF400713D
:1002E0000B4800F0CBF908E04021044800F0C6F9C3
:1002F0004FF40071064800F0C1F910BD0014014030
:100300000500002000000020001001400600002031
:100310000020014000200449087004490870044985
:100320000870044908707047040000200500002090
:100330000600002007000020704710B5044602E0C8
:100340008C2000F007F8201EA4F10101CCB2F7D1F7
:1003500010BD000031B5009884B20121094800F0B9
:10036000BDFD2146074800F0E2FD03E0054800F02E
:10037000C1FD0446012CF9DC0021024800F0AEFD6D
:1003800038BD00000004004000EBC0014FF0E02247
:1003900051611146096941F00101116100BF4FF03F
:1003A000E021096901F480310029F8D000214FF0E3
:1003B000E02211619161704700B5034603E04FF4FC
:1003C0007A70FFF7E1FF181EA3F10103F7D100BD1A
:1003D00010B507480068401C0549086008460068D9
:1003E0000F2803D30020086000F04CF910BD000076
:1003F0002000002010B54FF4806000F00FF828B105
:100400004FF4806000F004F800F0FCF910BD00002B
:1004100001490860704700001404014001460020B3
:100420000022074B1B6803EA0102054B14331B68CB
:100430000B4013B10AB1012000E00020704700001A
:1004400000040140002123498279002A3AD00A465B
:10045000126803689A430B461A600A1D1268036803
:100460009A430B1D1A60027911440A6803681A4303
:100470000A60184A0832126803689A43154B083319
:100480001A601A1D126803689A43124B0C331A60E3
:100490004279102A0ED11A1F126803681A430D4BB5
:1004A00008331A601A1D126803681A43094B0C338B
:1004B0001A600DE00749427911440A6803681A433B
:1004C0000A6005E0027911440A6803689A430A60E9
:1004D000704700000004014010B50121042000F025
:1004E000DDFB0121082000F0D9FB0121102000F0E4
:1004F000D5FB0121202000F0D1FB0121402000F09C
:10050000CDFB0121802000F0C9FB0121080200F091
:10051000C5FB10BD30B500228B071C0F0F2303FA5B
:1005200004F20B4B8C1053F824309343084C8D107D
:1005300044F8253023468C1053F824308C07240FC0
:1005400000FA04F42343024C8D1044F8253030BDEA
:10055000080001402DE9F041024600250026002058
:1005600000230024002791F803C00CF00F0591F838
:1005700003C00CF0100CBCF1000F03D091F802C0C6
:100580004CEA050591F800C0BCF1000F31D01468A9
:1005900000202BE04FF0010C0CFA00F3B1F800C082
:1005A0000CEA03069E4220D183004FF00F0C0CFA98
:1005B00003F7BC4305FA03FC4CEA040491F803C0BA
:1005C000BCF1280F06D14FF0010C0CFA00FCC2F868
:1005D00014C00AE091F803C0BCF1480F05D14FF0F8
:1005E000010C0CFA00FCC2F810C0401C0828D1D342
:1005F0001460B1F800C0BCF1FF0F34DD5468002076
:100600002EE000F1080C4FF0010808FA0CF3B1F8E5
:1006100000C00CEA03069E4221D183004FF00F0C6C
:100620000CFA03F7BC4305FA03FC4CEA040491F806
:1006300003C0BCF1280F05D100F1080C08FA0CF832
:10064000C2F8148091F803C0BCF1480F07D100F143
:10065000080C4FF0010808FA0CF8C2F81080401C92
:100660000828CED35460BDE8F0810246002093688C
:100670000B400BB1012000E0002070474161704742
:100680000161704710B54FF480713848FFF7F6FFED
:100690000120374908700021364800F048FC01214C
:1006A000344800F01BFC00BF324800F023FC0B284C
:1006B000FADB02202E490870C1012C48FFF7E0FF49
:1006C00000212C4800F033FC10E02A4800F012FC16
:1006D0004EF66021884209DD002025490870264930
:1006E00008600021234800F0F9FB10BD4FF4804161
:1006F0002248FFF7BAFF0028E7D000211D4800F08C
:1007000016FC12E01B4800F0F5FB04464EF6602094
:10071000844209DD0020164908701749086000214D
:10072000144800F0DBFBE0E700BF4FF480411348C2
:10073000FFF79BFF0128E5D00E4800F0DBFB1049D6
:10074000086000210B4800F0C9FB0D48006800EB71
:10075000001040004FF4FA6190FBF1F00649086088
:1007600000200349087000BFBFE7000000140140EB
:10077000100000200008004018000020000C01407C
:100780001400002000BFFEE71FB50121084600F05D
:1007900085FA4FF48060ADF80C0048208DF80F000A
:1007A00003208DF80E0003A91548FFF7D3FE0A2198
:1007B0000320FFF7AFFE4FF4806001900C208DF80E
:1007C000090000208DF8080001208DF80A0001A81A
:1007D000FFF738FE4FF4E06000F034FA28208DF87F
:1007E000000000208DF801008DF8020001208DF836
:1007F0000300684600F0EEF900F0EEFB1FBD0000BC
:100800000014014070B500260F20FFF796FD4FF44D
:1008100080614248FFF729FF012800D170BD2820E0
:100820003F49087002E00120FFF787FD4FF4806127
:100830003A48FFF71AFF0028F5D000243AE00025D7
:1008400034E002E00120FFF778FD4FF48061334887
:10085000FFF70BFF0028F5D102E00120FFF76DFD47
:100860004FF480612D48FFF700FF0028F5D007E026
:100870000120FFF762FD701CC6B21E2E00DBCDE723
:100880004FF480612548FFF7F0FE0028F0D125489D
:10089000005D401023490855082E04DB0846005D22
:1008A00040F0800008550026681CC5B2082DC8DB42
:1008B000601CC4B2042CC2DB1A48C078C043C5B265
:1008C00018488078A84200D0A8E7164880784328C6
:1008D00015D004DC15280AD0402818D113E044288C
:1008E00009D0462813D141200F49087010E042205A
:1008F0000D4908700CE043200B49087008E04420C3
:100900000949087004E049200749087000E085E7BC
:1009100000BF01200549087000BF7FE700140140B7
:100920000D000020250000200B00002024000020E6
:1009300010B5002400F032F86420FFF73DFD3820A8
:1009400000F090F80C2000F08DF8062000F08AF8F6
:10095000012000F087F86420FFF72EFD802000F0D2
:1009600081F800BF05E00B49085D00F0ADF8601CA0
:1009700044B20A2CF7DBC02000F074F8002405E034
:100980000549085D00F0A0F8601C44B2082CF7DBB4
:1009900010BD0000F0140008FB14000808B54FF467
:1009A0000050ADF8000010208DF8030003208DF8F2
:1009B000020069461648FFF7CDFD4FF48040ADF8C0
:1009C000000010208DF8030003208DF80200694616
:1009D0000F48FFF7BFFD4FF40040ADF800001020B6
:1009E0008DF8030003208DF8020069460848FFF7E0
:1009F000B1FDFF20ADF8000010208DF803000320AA
:100A00008DF8020069460348FFF7A4FD08BD000009
:100A100000100140001C014010B50446C92000F040
:100A200021F8E0B200F050F810BD000038B50546DE
:100A3000002400208DF803002A4608A1684600F033
:100A40005FFB8A2000F00EF800BF04E01DF80400F0
:100A500000F03AF8641C032CF8DB38BD2530336411
:100A60000000000010B504461420FFF78DFC4FF481
:100A70007F00134908600846046041141148FFF7DD
:100A8000FDFD4FF480410F48FFF7F8FD4FF40041A2
:100A90000C48FFF7F3FD0A20FFF776FC4FF4004106
:100AA0000848FFF7EDFD0A20FFF76EFC4FF4004108
:100AB0000448FFF7E3FD0A20FFF766FC10BD0000C5
:100AC000101C01400010014010B504461420FFF72F
:100AD0005BFC4FF47F001349086008460460411432
:100AE0001148FFF7CDFD4FF480410F48FFF7C6FDD9
:100AF0004FF400410C48FFF7C1FD0A20FFF744FC0A
:100B00004FF400410848FFF7BBFD0A20FFF73CFC0B
:100B10004FF400410448FFF7B1FD0A20FFF734FC11
:100B200010BD0000101C01400010014000BFFEE796
:100B300008B54FF40050ADF8000002208DF8020017
:100B400010208DF8030069461B48FFF703FD4FF4A2
:100B50000060ADF8000069461748FFF7FBFC4FF452
:100B60000060ADF8000069461448FFF7F3FC01206F
:100B7000ADF8000069461248FFF7ECFC4020ADF8E4
:100B8000000069460E48FFF7E5FC4FF40070ADF831
:100B9000000069460848FFF7DDFC1020ADF80000B2
:100BA00069460748FFF7D6FC0420ADF80000694607
:100BB0000348FFF7CFFC08BD0020014000100140B2
:100BC0000014014010B5FFF7B3FFFFF7A3FB10BD02
:100BD0007047000070B5002100230F22C47804B3D1
:100BE000154C246804F4E064C4F5E064210AC1F102
:100BF0000403CA40447804FA03F184781440214382
:100C000009010E4C0678A155047804F01F05012453
:100C1000AC4005786D11AD0005F1E025C5F8004147
:100C200009E0047804F01F050124AC40044D067867
:100C3000761145F8264070BD0CED00E000E400E0C0
:100C400080E100E002490143024A11607047000060
:100C50000000FA050CED00E008B51C208DF800003E
:100C600000208DF8010001208DF802008DF80300AE
:100C70006846FFF7AFFF08BD7047000029B1064A7C
:100C8000D2690243044BDA6104E0034AD269824329
:100C9000014BDA61704700000010024029B1064A9A
:100CA00092690243044B9A6104E0034A92698243C9
:100CB000014B9A617047000000100240704700002D
:100CC00008B50120ADF8000010208DF803000320C6
:100CD0008DF8020069460448FFF73CFC01210248F8
:100CE000FFF7CEFC08BD00000008014010B500F081
:100CF00001F810BD0CB50020019000903348006849
:100D000040F480303149086000BF3048006800F48A
:100D1000003000900198401C0190009818B901988B
:100D2000B0F5A06FF1D12948006800F4003010B18F
:100D30000120009001E0002000900098012843D19C
:100D40002348006840F01000214908600846006808
:100D500020F0030008600846006840F002000860C8
:100D60001A48406819494860084640684860084683
:100D7000406840F4806048600846406820F47C1079
:100D800048600846406840F4E8104860084600683B
:100D900040F08070086000BF0C48006800F00070F0
:100DA0000028F9D00948406820F00300074948604E
:100DB0000846406840F00200486000BF03484068B1
:100DC00000F00C000828F9D10CBD00000010024012
:100DD000002002407047000010B51148006840F044
:100DE00001000F490860084640680E4908400C4958
:100DF0004860084600680C490840094908600846F0
:100E0000006820F4802008600846406820F4FE0056
:100E100048604FF41F008860FFF768FF10BD0000B6
:100E2000001002400000FFF8FFFFF6FE10B50121A0
:100E3000880700F062F808B30121880700F04BF83A
:100E40000F480078401C0E490870084600780A28B0
:100E500014DB002008700B480068401C094908603A
:100E600009480078401C0849087006480068322884
:100E700002D3002003490860FFF7A2F910BD00006B
:100E80000900002000000020080000200EB501210C
:100E90000846FFF7F3FE6320ADF804004720ADF8E5
:100EA00000000020ADF80600ADF8020069464FF0E2
:100EB000804000F03FF80121880700F00CF8012283
:100EC0001146900700F02AF80121880700F006F883
:100ED000FFF7C2FE0EBDCA430282704721B10288ED
:100EE00042F00102028004E002884FF6FE731A40CD
:100EF000028070470146888C704730B5024600205A
:100F000000230024158A05EA0103958905EA0104F6
:100F100013B10CB1012000E0002030BD1AB183896B
:100F20000B43838102E083898B43838170478184F3
:100F300070470000002202881D4B98420ED01D4BC6
:100F400098420BD0B0F1804F08D01B4B984205D08F
:100F50001A4B984202D01A4B984204D14FF68F7325
:100F60001A404B881A43174B984207D0164B9842A9
:100F700004D04FF6FF431A40CB881A4302808B8877
:100F800083850B8803850A4B98420BD0094B984206
:100F900008D00E4B984205D00D4B984202D00D4B15
:100FA000984201D10B7A03860123838270470000A7
:100FB000002C0140003401400004004000080040C3
:100FC000000C0040001000400014004000400140B0
:100FD00000440140004801400EB501210220FFF706
:100FE0004DFE0120ADF804004720ADF800001020B0
:100FF000ADF8020069460248FFF79CFF0EBD0000F5
:10100000000400400EB501210420FFF737FE4FF623
:10101000FF70ADF804004720ADF800000020ADF8E7
:10102000020069460148FFF785FF0EBD0008004039
:101030001FB54FF48040ADF80C0048208DF80F002C
:1010400003208DF80E0003A91E48FFF783FA4FF422
:101050008070ADF80C0010208DF80F0003208DF883
:101060000E0003A91848FFF775FA0E210120FFF7BB
:1010700051FA4FF4804001900C208DF809000020B7
:101080008DF808008DF80A0001A8FFF7DBF94FF48E
:10109000E060FFF7D7FD28208DF8000000208DF8D4
:1010A000010003208DF8020001208DF8030068463E
:1010B000FFF790FDFFF7A6FF4FF480710248FFF79E
:1010C000DFFA1FBD000C01400014014000BFFEE725
:1010D00008B54FF40040ADF8000010208DF8030073
:1010E00003208DF8020069460448FFF733FA4FF4F5
:1010F00000410248FFF7C4FA08BD0000002001408B
:101100000FB4084B10B504A902AA039800F01CF80C
:10111000044602A9002000F0B8F9204610BC5DF892
:1011200014FB00008B14000802E008C8121F08C15D
:10113000002AFAD170477047002001E001C1121F58
:10114000002AFBD1704700002DE9FF4F8BB0884685
:101150000546002606E025280BD0DDE90D12904754
:101160006D1C761C28780028F5D10FB03046BDE8FC
:10117000F08F0024A146A2460122AE4900E00443BC
:1011800015F8013F203B02FA03F00842F7D1287816
:101190002A2810D06FF02F022878A0F130010929F9
:1011A00015D809EB890102EB410144F0020400EB80
:1011B00001096D1CF0E758F8041B5FEA010903D52B
:1011C00044F40054C9F1000944F002046D1C28786D
:1011D0002E2817D115F8010F44F004042A280ED048
:1011E0006FF02F022878A0F1300109290AD80AEB04
:1011F0008A0102EB410100EB010A6D1CF2E758F88D
:1012000004AB6D1C28786C280FD006DC4C2817D056
:1012100068280DD06A2814D104E0742810D07A28E8
:101220000FD10DE044F400140AE044F4801401E00E
:1012300044F440146978814202D104F580146D1C95
:101240006D1C2878692865D006DC00288DD06328BD
:1012500027D0642806D15DE06E2808D073282AD0F4
:10126000752877D0DDE90D129047761CE0E0C4F3D5
:101270000250022809D003280DD0D8F80010042805
:101280000DD00E6008F10408D2E0D8F80010F21773
:10129000C1E90062F6E7D8F800100E80F2E70E70A0
:1012A000F0E718F8041B8DF8001000208DF80100FD
:1012B000EB46012003E058F804BB4FF0FF30610714
:1012C0004FF0000701D40AE07F1C57450DDA874232
:1012D000FADB1BF807100029F6D106E07F1C8742D5
:1012E000FCDB1BF807100029F8D1DDE90D23A9EB81
:1012F00007008146214600F0B1F83044C61904E0E9
:10130000DDE90D121BF8010B90477F1EF8D2214634
:10131000484688E058F8040BC4F302514FF00A0B1A
:10132000032900D100B2042900D140B2002802DA1A
:1013300040422D2102E0210505D52B218DF82410F6
:10134000012104E006E0E10710D02021F6E708AF14
:10135000089113E058F8040BC4F302514FF00A0B44
:10136000032900D180B2042900D1C0B20021EEE7E8
:101370005946FEF7FBFE303107F8011D0028F7D172
:10138000ADEB070000F1200B600702D524F4803498
:1013900001E04FF0010ADA4502DDAAEB0B0000E0A4
:1013A0000020824600EB0B0108980144A9EB0100E4
:1013B0000A90E00306D4DDE90D2321460A9800F0E7
:1013C0004DF806444FF0000908E009A911F809009A
:1013D000DDE90D12904709F10109761C089989454C
:1013E000F3DBE0030CD5DDE90D2321460A9800F07C
:1013F00035F8064404E0DDE90D1230209047761CF4
:10140000BAF10001AAF1010AF5DC05E0DDE90D12EF
:1014100017F8010B9047761CBBF10001ABF1010BF3
:10142000F4DC0A982146DDE90D2300F005F80644B6
:101430006D1C97E6092801002DE9F04104460025BE
:101440001E461746880404D405E039462020B047DC
:101450006D1C641EF9D52846BDE8F0812DE9F041E8
:10146000044600251E469046C80301D5302700E0FB
:101470002027880404D505E041463846B0476D1C56
:10148000641EF9D52846BDE8F0810A68531C0B603C
:10149000107070474FF0E020006920F004004FF01A
:1014A000E021086170470000FFF7F4FFFFF714F830
:1014B000FFF70EFEFFF73CFAFFF766F9FFF7E6FCD1
:1014C000FFF780FBFFF7B4FDFFF7FAFB0AE00648E1
:1014D0000068FFF7ABFAFEF77BFF044890F90000C5
:1014E000FFF79AFAF3E70000180000200B00002035
:1014F00044697374616E63653A2000436F6D6D617A
:101500006E643A0024150008000000202C00000042
:1015100028110008501500082C00002004040000C9
:101520003811000800000000282828280000004981
:101530004900000000000000000000000000000062
:10154000000000000000000000000000000000009B
:0400000508000149A5
:00000001FF
